:1000000000000320D1010000353C0000F13B00005E
:10001000F13B0000F13B0000F13B0000F13B000030
:10002000F13B0000F13B0000F13B0000353C0000DB
:10003000353C0000F13B0000C9530000CD530000E7
:10004000353C0000353C0000353C0000353C0000EC
:10005000353C0000353C0000353C0000353C0000DC
:10006000353C0000353C0000353C0000353C0000CC
:10007000353C0000353C0000353C0000353C0000BC
:10008000353C0000353C0000353C0000353C0000AC
:10009000353C0000353C0000353C0000353C00009C
:1000A000353C0000353C0000353C0000353C00008C
:1000B000353C0000353C0000353C0000353C00007C
:1000C000353C0000353C0000353C0000353C00006C
:1000D000353C0000353C0000353C0000353C00005C
:1000E000353C0000353C0000353C0000353C00004C
:1000F000353C0000353C0000353C0000353C00003C
:10010000353C0000353C0000353C0000353C00002B
:10011000353C0000D1460000353C0000353C000075
:10012000353C0000353C0000353C0000353C00000B
:10013000353C0000353C0000353C0000353C0000FB
:10014000353C0000353C0000353C0000353C0000EB
:10015000353C0000353C0000353C0000353C0000DB
:10016000353C0000353C0000353C0000353C0000CB
:10017000353C0000353C0000353C0000353C0000BB
:10018000353C0000353C0000353C0000353C0000AB
:10019000353C0000353C0000353C0000353C00009B
:1001A000353C0000353C0000353C0000353C00008B
:1001B000353C0000353C0000353C0000353C00007B
:1001C000353C0000353C0000353C0000353C00006B
:1001D0005F4B4CF2205210B5DA814DF62812DA81CD
:1001E00000BF00BF03F02AFD5A4B4FF030621A6384
:1001F000594A9A63594ADA634FF0E0234FF4700288
:10020000C3F8882D03F5E823554A1A60554B9A78B0
:10021000110703D59A7842F008029A70524B53485E
:10022000AA221A70524BDA1C121AC11E22F00302C3
:10023000994288BF00224F4903F006FC4E4B4F48BD
:10024000DA1C121AC11E22F00302994288BF002252
:10025000002106F051F94A494A484FF4E87203F088
:10026000F3FB494B494A802103F8011B9342FBD120
:100270004FF0E023434AC3F8082D454B8A221A70F9
:10028000A3F5805324225A70A0221A709A799207FB
:10029000FCD59A79D406FCD43E4A937903F00C033A
:1002A000082BFAD1304B60225A70DA78802AFCD1C0
:1002B000384B01221A715D225A719A799006FCD549
:1002C0009A795106FCD5234A33495164002191643F
:1002D000202119702F498B7903F00C030C2BFAD1D4
:1002E0002E4B53602E4A136913F4807303D153616C
:1002F0004FF4A85313614FF0E0232A4A5A610022B9
:100300009A6107221A61284AC3F8202D62B603F0C9
:10031000C7FD234B5B69DA0705D5244803F0B4FD1C
:10032000234B244ADA61244B1B785B0609D5204C09
:10033000204BE2699A4204D11C4803F0A5FD00233A
:10034000E36103F081FC06F02FF903F075FBFEE793
:100350000020054000800440823F04000100002B83
:100360000300008500D0074000E007403007FF1F72
:100370000C10FF1F947B0000AC16FF1F1010FF1F16
:10038000000000000002FF1F00E400E064E400E061
:10039000005006400040064000000602C010070062
:1003A00000D003401FBF02000000202067DC24674C
:1003B00000E00340A5C3945A00F00740FFFFFFFF91
:1003C000FFFFFFFFFFFFFFFFFFFFFFFFFFFFFFFF3D
:1003D000FFFFFFFFFFFFFFFFFFFFFFFFFFFFFFFF2D
:1003E000FFFFFFFFFFFFFFFFFFFFFFFFFFFFFFFF1D
:1003F000FFFFFFFFFFFFFFFFFFFFFFFFFFFFFFFF0D
:10040000FFFFFFFFFFFFFFFFFFFFFFFFDEF9FFFF23
:100410000548064B1B1AD90F01EBA301491002D066
:10042000034B03B1184770470C10FF1F0C10FF1F40
:100430000000000008B5054B1BB105490548AFF3A6
:100440000080BDE80840FFF7E3BF00BF00000000E8
:100450001010FF1F8C7B000038B5054CA4F130054F
:100460000C3C204603F01AFAAC42F9D138BD00BF6B
:10047000A010FF1F38B50D4604460021007A03F096
:100480008BFD85EAE571207BA1EBE571BDE8384085
:1004900003F082BD38B50D4604460021007B03F011
:1004A0007BFD85EAE571207AA1EBE571BDE8384076
:1004B00003F072BD10B504460021007B03F06CFD13
:1004C000207A0021BDE8104003F066BD1E4B1A687B
:1004D000D2E9001309781878537A92F808C01842C4
:1004E00001EA0C0127D0937A03F00303B9B943F072
:1004F00008039908013B91720D2B1BD8DFE803F02C
:100500000B0716071A120B0B121A0716070BD368E4
:10051000013BD3607047D3680133D360704743F029
:100520000403E4E7D368023BD3607047D368023327
:10053000D36070477047937A03F003030029D8D043
:1005400043F00403D5E700BF6011FF1F1E4BD3F833
:10055000EC20D2E9001309781878537A92F808C091
:10056000184201EA0C0127D0937A03F00303B9B9CA
:1005700043F008039908013B91720D2B1BD8DFE86B
:1005800003F00B0716071A120B0B121A0716070BAC
:10059000D368013BD3607047D3680133D3607047A1
:1005A00043F00403E4E7D368023BD3607047D368A9
:1005B0000233D36070477047937A03F00303002936
:1005C000D8D043F00403D5E76011FF1F1E4B5A68D3
:1005D000D2E9001309781878537A92F808C01842C3
:1005E00001EA0C0127D0937A03F00303B9B943F071
:1005F00008039908013B91720D2B1BD8DFE803F02B
:100600000B0716071A120B0B121A0716070BD368E3
:10061000013BD3607047D3680133D360704743F028
:100620000403E4E7D368023BD3607047D368023326
:10063000D36070477047937A03F003030029D8D042
:1006400043F00403D5E700BF6011FF1F1E4B9A68FB
:10065000D2E9001309781878537A92F808C0184242
:1006600001EA0C0127D0937A03F00303B9B943F0F0
:1006700008039908013B91720D2B1BD8DFE803F0AA
:100680000B0716071A120B0B121A0716070BD36863
:10069000013BD3607047D3680133D360704743F0A8
:1006A0000403E4E7D368023BD3607047D3680233A6
:1006B000D36070477047937A03F003030029D8D0C2
:1006C00043F00403D5E700BF6011FF1F1E4BDA683B
:1006D000D2E9001309781878537A92F808C01842C2
:1006E00001EA0C0127D0937A03F00303B9B943F070
:1006F00008039908013B91720D2B1BD8DFE803F02A
:100700000B0716071A120B0B121A0716070BD368E2
:10071000013BD3607047D3680133D360704743F027
:100720000403E4E7D368023BD3607047D368023325
:10073000D36070477047937A03F003030029D8D041
:1007400043F00403D5E700BF6011FF1F1E4B1A6979
:10075000D2E9001309781878537A92F808C0184241
:1007600001EA0C0127D0937A03F00303B9B943F0EF
:1007700008039908013B91720D2B1BD8DFE803F0A9
:100780000B0716071A120B0B121A0716070BD36862
:10079000013BD3607047D3680133D360704743F0A7
:1007A0000403E4E7D368023BD3607047D3680233A5
:1007B000D36070477047937A03F003030029D8D0C1
:1007C00043F00403D5E700BF6011FF1F1E4BD3F8B1
:1007D000E420D2E9001309781878537A92F808C017
:1007E000184201EA0C0127D0937A03F00303B9B948
:1007F00043F008039908013B91720D2B1BD8DFE8E9
:1008000003F00B0716071A120B0B121A0716070B29
:10081000D368013BD3607047D3680133D36070471E
:1008200043F00403E4E7D368023BD3607047D36826
:100830000233D36070477047937A03F003030029B3
:10084000D8D043F00403D5E76011FF1F1E4BD3F847
:10085000E820D2E9001309781878537A92F808C092
:10086000184201EA0C0127D0937A03F00303B9B9C7
:1008700043F008039908013B91720D2B1BD8DFE868
:1008800003F00B0716071A120B0B121A0716070BA9
:10089000D368013BD3607047D3680133D36070479E
:1008A00043F00403E4E7D368023BD3607047D368A6
:1008B0000233D36070477047937A03F00303002933
:1008C000D8D043F00403D5E76011FF1F1E4BD3F8C7
:1008D000D420D2E9001309781878537A92F808C026
:1008E000184201EA0C0127D0937A03F00303B9B947
:1008F00043F008039908013B91720D2B1BD8DFE8E8
:1009000003F00B0716071A120B0B121A0716070B28
:10091000D368013BD3607047D3680133D36070471D
:1009200043F00403E4E7D368023BD3607047D36825
:100930000233D36070477047937A03F003030029B2
:10094000D8D043F00403D5E76011FF1F1E4BD3F846
:10095000D820D2E9001309781878537A92F808C0A1
:10096000184201EA0C0127D0937A03F00303B9B9C6
:1009700043F008039908013B91720D2B1BD8DFE867
:1009800003F00B0716071A120B0B121A0716070BA8
:10099000D368013BD3607047D3680133D36070479D
:1009A00043F00403E4E7D368023BD3607047D368A5
:1009B0000233D36070477047937A03F00303002932
:1009C000D8D043F00403D5E76011FF1F1E4BD3F8C6
:1009D000DC20D2E9001309781878537A92F808C01D
:1009E000184201EA0C0127D0937A03F00303B9B946
:1009F00043F008039908013B91720D2B1BD8DFE8E7
:100A000003F00B0716071A120B0B121A0716070B27
:100A1000D368013BD3607047D3680133D36070471C
:100A200043F00403E4E7D368023BD3607047D36824
:100A30000233D36070477047937A03F003030029B1
:100A4000D8D043F00403D5E76011FF1F1E4BD3F845
:100A5000E020D2E9001309781878537A92F808C098
:100A6000184201EA0C0127D0937A03F00303B9B9C5
:100A700043F008039908013B91720D2B1BD8DFE866
:100A800003F00B0716071A120B0B121A0716070BA7
:100A9000D368013BD3607047D3680133D36070479C
:100AA00043F00403E4E7D368023BD3607047D368A4
:100AB0000233D36070477047937A03F00303002931
:100AC000D8D043F00403D5E76011FF1F1E4BD3F8C5
:100AD0009420D2E9001309781878537A92F808C064
:100AE000184201EA0C0127D0937A03F00303B9B945
:100AF00043F008039908013B91720D2B1BD8DFE8E6
:100B000003F00B0716071A120B0B121A0716070B26
:100B1000D368013BD3607047D3680133D36070471B
:100B200043F00403E4E7D368023BD3607047D36823
:100B30000233D36070477047937A03F003030029B0
:100B4000D8D043F00403D5E76011FF1F1E4BD3F844
:100B50009820D2E9001309781878537A92F808C0DF
:100B6000184201EA0C0127D0937A03F00303B9B9C4
:100B700043F008039908013B91720D2B1BD8DFE865
:100B800003F00B0716071A120B0B121A0716070BA6
:100B9000D368013BD3607047D3680133D36070479B
:100BA00043F00403E4E7D368023BD3607047D368A3
:100BB0000233D36070477047937A03F00303002930
:100BC000D8D043F00403D5E76011FF1F1E4BD3F8C4
:100BD0009C20D2E9001309781878537A92F808C05B
:100BE000184201EA0C0127D0937A03F00303B9B944
:100BF00043F008039908013B91720D2B1BD8DFE8E5
:100C000003F00B0716071A120B0B121A0716070B25
:100C1000D368013BD3607047D3680133D36070471A
:100C200043F00403E4E7D368023BD3607047D36822
:100C30000233D36070477047937A03F003030029AF
:100C4000D8D043F00403D5E76011FF1F1E4BD3F843
:100C5000A020D2E9001309781878537A92F808C0D6
:100C6000184201EA0C0127D0937A03F00303B9B9C3
:100C700043F008039908013B91720D2B1BD8DFE864
:100C800003F00B0716071A120B0B121A0716070BA5
:100C9000D368013BD3607047D3680133D36070479A
:100CA00043F00403E4E7D368023BD3607047D368A2
:100CB0000233D36070477047937A03F0030300292F
:100CC000D8D043F00403D5E76011FF1F1E4BD3F8C3
:100CD000A420D2E9001309781878537A92F808C052
:100CE000184201EA0C0127D0937A03F00303B9B943
:100CF00043F008039908013B91720D2B1BD8DFE8E4
:100D000003F00B0716071A120B0B121A0716070B24
:100D1000D368013BD3607047D3680133D360704719
:100D200043F00403E4E7D368023BD3607047D36821
:100D30000233D36070477047937A03F003030029AE
:100D4000D8D043F00403D5E76011FF1F1E4BD3F842
:100D5000A820D2E9001309781878537A92F808C0CD
:100D6000184201EA0C0127D0937A03F00303B9B9C2
:100D700043F008039908013B91720D2B1BD8DFE863
:100D800003F00B0716071A120B0B121A0716070BA4
:100D9000D368013BD3607047D3680133D360704799
:100DA00043F00403E4E7D368023BD3607047D368A1
:100DB0000233D36070477047937A03F0030300292E
:100DC000D8D043F00403D5E76011FF1F1E4BD3F8C2
:100DD000AC20D2E9001309781878537A92F808C049
:100DE000184201EA0C0127D0937A03F00303B9B942
:100DF00043F008039908013B91720D2B1BD8DFE8E3
:100E000003F00B0716071A120B0B121A0716070B23
:100E1000D368013BD3607047D3680133D360704718
:100E200043F00403E4E7D368023BD3607047D36820
:100E30000233D36070477047937A03F003030029AD
:100E4000D8D043F00403D5E76011FF1F1E4BD3F841
:100E5000B020D2E9001309781878537A92F808C0C4
:100E6000184201EA0C0127D0937A03F00303B9B9C1
:100E700043F008039908013B91720D2B1BD8DFE862
:100E800003F00B0716071A120B0B121A0716070BA3
:100E9000D368013BD3607047D3680133D360704798
:100EA00043F00403E4E7D368023BD3607047D368A0
:100EB0000233D36070477047937A03F0030300292D
:100EC000D8D043F00403D5E76011FF1F1E4BD3F8C1
:100ED000B420D2E9001309781878537A92F808C040
:100EE000184201EA0C0127D0937A03F00303B9B941
:100EF00043F008039908013B91720D2B1BD8DFE8E2
:100F000003F00B0716071A120B0B121A0716070B22
:100F1000D368013BD3607047D3680133D360704717
:100F200043F00403E4E7D368023BD3607047D3681F
:100F30000233D36070477047937A03F003030029AC
:100F4000D8D043F00403D5E76011FF1F1E4BD3F840
:100F5000B820D2E9001309781878537A92F808C0BB
:100F6000184201EA0C0127D0937A03F00303B9B9C0
:100F700043F008039908013B91720D2B1BD8DFE861
:100F800003F00B0716071A120B0B121A0716070BA2
:100F9000D368013BD3607047D3680133D360704797
:100FA00043F00403E4E7D368023BD3607047D3689F
:100FB0000233D36070477047937A03F0030300292C
:100FC000D8D043F00403D5E76011FF1F1E4BD3F8C0
:100FD000BC20D2E9001309781878537A92F808C037
:100FE000184201EA0C0127D0937A03F00303B9B940
:100FF00043F008039908013B91720D2B1BD8DFE8E1
:1010000003F00B0716071A120B0B121A0716070B21
:10101000D368013BD3607047D3680133D360704716
:1010200043F00403E4E7D368023BD3607047D3681E
:101030000233D36070477047937A03F003030029AB
:10104000D8D043F00403D5E76011FF1F1E4BD3F83F
:10105000C020D2E9001309781878537A92F808C0B2
:10106000184201EA0C0127D0937A03F00303B9B9BF
:1010700043F008039908013B91720D2B1BD8DFE860
:1010800003F00B0716071A120B0B121A0716070BA1
:10109000D368013BD3607047D3680133D360704796
:1010A00043F00403E4E7D368023BD3607047D3689E
:1010B0000233D36070477047937A03F0030300292B
:1010C000D8D043F00403D5E76011FF1F1E4BD3F8BF
:1010D000C420D2E9001309781878537A92F808C02E
:1010E000184201EA0C0127D0937A03F00303B9B93F
:1010F00043F008039908013B91720D2B1BD8DFE8E0
:1011000003F00B0716071A120B0B121A0716070B20
:10111000D368013BD3607047D3680133D360704715
:1011200043F00403E4E7D368023BD3607047D3681D
:101130000233D36070477047937A03F003030029AA
:10114000D8D043F00403D5E76011FF1F1E4BD3F83E
:10115000C820D2E9001309781878537A92F808C0A9
:10116000184201EA0C0127D0937A03F00303B9B9BE
:1011700043F008039908013B91720D2B1BD8DFE85F
:1011800003F00B0716071A120B0B121A0716070BA0
:10119000D368013BD3607047D3680133D360704795
:1011A00043F00403E4E7D368023BD3607047D3689D
:1011B0000233D36070477047937A03F0030300292A
:1011C000D8D043F00403D5E76011FF1F1E4BD3F8BE
:1011D000CC20D2E9001309781878537A92F808C025
:1011E000184201EA0C0127D0937A03F00303B9B93E
:1011F00043F008039908013B91720D2B1BD8DFE8DF
:1012000003F00B0716071A120B0B121A0716070B1F
:10121000D368013BD3607047D3680133D360704714
:1012200043F00403E4E7D368023BD3607047D3681C
:101230000233D36070477047937A03F003030029A9
:10124000D8D043F00403D5E76011FF1F1E4BD3F83D
:10125000D020D2E9001309781878537A92F808C0A0
:10126000184201EA0C0127D0937A03F00303B9B9BD
:1012700043F008039908013B91720D2B1BD8DFE85E
:1012800003F00B0716071A120B0B121A0716070B9F
:10129000D368013BD3607047D3680133D360704794
:1012A00043F00403E4E7D368023BD3607047D3689C
:1012B0000233D36070477047937A03F00303002929
:1012C000D8D043F00403D5E76011FF1F1E4B5A69C5
:1012D000D2E9001309781878537A92F808C01842B6
:1012E00001EA0C0127D0937A03F00303B9B943F064
:1012F00008039908013B91720D2B1BD8DFE803F01E
:101300000B0716071A120B0B121A0716070BD368D6
:10131000013BD3607047D3680133D360704743F01B
:101320000403E4E7D368023BD3607047D368023319
:10133000D36070477047937A03F003030029D8D035
:1013400043F00403D5E700BF6011FF1F1E4B9A69ED
:10135000D2E9001309781878537A92F808C0184235
:1013600001EA0C0127D0937A03F00303B9B943F0E3
:1013700008039908013B91720D2B1BD8DFE803F09D
:101380000B0716071A120B0B121A0716070BD36856
:10139000013BD3607047D3680133D360704743F09B
:1013A0000403E4E7D368023BD3607047D368023399
:1013B000D36070477047937A03F003030029D8D0B5
:1013C00043F00403D5E700BF6011FF1F1E4BDA692D
:1013D000D2E9001309781878537A92F808C01842B5
:1013E00001EA0C0127D0937A03F00303B9B943F063
:1013F00008039908013B91720D2B1BD8DFE803F01D
:101400000B0716071A120B0B121A0716070BD368D5
:10141000013BD3607047D3680133D360704743F01A
:101420000403E4E7D368023BD3607047D368023318
:10143000D36070477047937A03F003030029D8D034
:1014400043F00403D5E700BF6011FF1F1E4B1A6A6B
:10145000D2E9001309781878537A92F808C0184234
:1014600001EA0C0127D0937A03F00303B9B943F0E2
:1014700008039908013B91720D2B1BD8DFE803F09C
:101480000B0716071A120B0B121A0716070BD36855
:10149000013BD3607047D3680133D360704743F09A
:1014A0000403E4E7D368023BD3607047D368023398
:1014B000D36070477047937A03F003030029D8D0B4
:1014C00043F00403D5E700BF6011FF1F1E4B5A6AAB
:1014D000D2E9001309781878537A92F808C01842B4
:1014E00001EA0C0127D0937A03F00303B9B943F062
:1014F00008039908013B91720D2B1BD8DFE803F01C
:101500000B0716071A120B0B121A0716070BD368D4
:10151000013BD3607047D3680133D360704743F019
:101520000403E4E7D368023BD3607047D368023317
:10153000D36070477047937A03F003030029D8D033
:1015400043F00403D5E700BF6011FF1F1E4B9A6AEA
:10155000D2E9001309781878537A92F808C0184233
:1015600001EA0C0127D0937A03F00303B9B943F0E1
:1015700008039908013B91720D2B1BD8DFE803F09B
:101580000B0716071A120B0B121A0716070BD36854
:10159000013BD3607047D3680133D360704743F099
:1015A0000403E4E7D368023BD3607047D368023397
:1015B000D36070477047937A03F003030029D8D0B3
:1015C00043F00403D5E700BF6011FF1F1E4BDA6A2A
:1015D000D2E9001309781878537A92F808C01842B3
:1015E00001EA0C0127D0937A03F00303B9B943F061
:1015F00008039908013B91720D2B1BD8DFE803F01B
:101600000B0716071A120B0B121A0716070BD368D3
:10161000013BD3607047D3680133D360704743F018
:101620000403E4E7D368023BD3607047D368023316
:10163000D36070477047937A03F003030029D8D032
:1016400043F00403D5E700BF6011FF1F1E4B1A6B68
:10165000D2E9001309781878537A92F808C0184232
:1016600001EA0C0127D0937A03F00303B9B943F0E0
:1016700008039908013B91720D2B1BD8DFE803F09A
:101680000B0716071A120B0B121A0716070BD36853
:10169000013BD3607047D3680133D360704743F098
:1016A0000403E4E7D368023BD3607047D368023396
:1016B000D36070477047937A03F003030029D8D0B2
:1016C00043F00403D5E700BF6011FF1F1E4B5A6BA8
:1016D000D2E9001309781878537A92F808C01842B2
:1016E00001EA0C0127D0937A03F00303B9B943F060
:1016F00008039908013B91720D2B1BD8DFE803F01A
:101700000B0716071A120B0B121A0716070BD368D2
:10171000013BD3607047D3680133D360704743F017
:101720000403E4E7D368023BD3607047D368023315
:10173000D36070477047937A03F003030029D8D031
:1017400043F00403D5E700BF6011FF1F1E4B9A6BE7
:10175000D2E9001309781878537A92F808C0184231
:1017600001EA0C0127D0937A03F00303B9B943F0DF
:1017700008039908013B91720D2B1BD8DFE803F099
:101780000B0716071A120B0B121A0716070BD36852
:10179000013BD3607047D3680133D360704743F097
:1017A0000403E4E7D368023BD3607047D368023395
:1017B000D36070477047937A03F003030029D8D0B1
:1017C00043F00403D5E700BF6011FF1F1E4BDA6B27
:1017D000D2E9001309781878537A92F808C01842B1
:1017E00001EA0C0127D0937A03F00303B9B943F05F
:1017F00008039908013B91720D2B1BD8DFE803F019
:101800000B0716071A120B0B121A0716070BD368D1
:10181000013BD3607047D3680133D360704743F016
:101820000403E4E7D368023BD3607047D368023314
:10183000D36070477047937A03F003030029D8D030
:1018400043F00403D5E700BF6011FF1F1E4B1A6C65
:10185000D2E9001309781878537A92F808C0184230
:1018600001EA0C0127D0937A03F00303B9B943F0DE
:1018700008039908013B91720D2B1BD8DFE803F098
:101880000B0716071A120B0B121A0716070BD36851
:10189000013BD3607047D3680133D360704743F096
:1018A0000403E4E7D368023BD3607047D368023394
:1018B000D36070477047937A03F003030029D8D0B0
:1018C00043F00403D5E700BF6011FF1F1E4B5A6CA5
:1018D000D2E9001309781878537A92F808C01842B0
:1018E00001EA0C0127D0937A03F00303B9B943F05E
:1018F00008039908013B91720D2B1BD8DFE803F018
:101900000B0716071A120B0B121A0716070BD368D0
:10191000013BD3607047D3680133D360704743F015
:101920000403E4E7D368023BD3607047D368023313
:10193000D36070477047937A03F003030029D8D02F
:1019400043F00403D5E700BF6011FF1F1E4B9A6CE4
:10195000D2E9001309781878537A92F808C018422F
:1019600001EA0C0127D0937A03F00303B9B943F0DD
:1019700008039908013B91720D2B1BD8DFE803F097
:101980000B0716071A120B0B121A0716070BD36850
:10199000013BD3607047D3680133D360704743F095
:1019A0000403E4E7D368023BD3607047D368023393
:1019B000D36070477047937A03F003030029D8D0AF
:1019C00043F00403D5E700BF6011FF1F1E4BDA6C24
:1019D000D2E9001309781878537A92F808C01842AF
:1019E00001EA0C0127D0937A03F00303B9B943F05D
:1019F00008039908013B91720D2B1BD8DFE803F017
:101A00000B0716071A120B0B121A0716070BD368CF
:101A1000013BD3607047D3680133D360704743F014
:101A20000403E4E7D368023BD3607047D368023312
:101A3000D36070477047937A03F003030029D8D02E
:101A400043F00403D5E700BF6011FF1F1E4B1A6D62
:101A5000D2E9001309781878537A92F808C018422E
:101A600001EA0C0127D0937A03F00303B9B943F0DC
:101A700008039908013B91720D2B1BD8DFE803F096
:101A80000B0716071A120B0B121A0716070BD3684F
:101A9000013BD3607047D3680133D360704743F094
:101AA0000403E4E7D368023BD3607047D368023392
:101AB000D36070477047937A03F003030029D8D0AE
:101AC00043F00403D5E700BF6011FF1F1E4B5A6DA2
:101AD000D2E9001309781878537A92F808C01842AE
:101AE00001EA0C0127D0937A03F00303B9B943F05C
:101AF00008039908013B91720D2B1BD8DFE803F016
:101B00000B0716071A120B0B121A0716070BD368CE
:101B1000013BD3607047D3680133D360704743F013
:101B20000403E4E7D368023BD3607047D368023311
:101B3000D36070477047937A03F003030029D8D02D
:101B400043F00403D5E700BF6011FF1F1E4B9A6DE1
:101B5000D2E9001309781878537A92F808C018422D
:101B600001EA0C0127D0937A03F00303B9B943F0DB
:101B700008039908013B91720D2B1BD8DFE803F095
:101B80000B0716071A120B0B121A0716070BD3684E
:101B9000013BD3607047D3680133D360704743F093
:101BA0000403E4E7D368023BD3607047D368023391
:101BB000D36070477047937A03F003030029D8D0AD
:101BC00043F00403D5E700BF6011FF1F1E4BDA6D21
:101BD000D2E9001309781878537A92F808C01842AD
:101BE00001EA0C0127D0937A03F00303B9B943F05B
:101BF00008039908013B91720D2B1BD8DFE803F015
:101C00000B0716071A120B0B121A0716070BD368CD
:101C1000013BD3607047D3680133D360704743F012
:101C20000403E4E7D368023BD3607047D368023310
:101C3000D36070477047937A03F003030029D8D02C
:101C400043F00403D5E700BF6011FF1F1E4B1A6E5F
:101C5000D2E9001309781878537A92F808C018422C
:101C600001EA0C0127D0937A03F00303B9B943F0DA
:101C700008039908013B91720D2B1BD8DFE803F094
:101C80000B0716071A120B0B121A0716070BD3684D
:101C9000013BD3607047D3680133D360704743F092
:101CA0000403E4E7D368023BD3607047D368023390
:101CB000D36070477047937A03F003030029D8D0AC
:101CC00043F00403D5E700BF6011FF1F1E4B5A6E9F
:101CD000D2E9001309781878537A92F808C01842AC
:101CE00001EA0C0127D0937A03F00303B9B943F05A
:101CF00008039908013B91720D2B1BD8DFE803F014
:101D00000B0716071A120B0B121A0716070BD368CC
:101D1000013BD3607047D3680133D360704743F011
:101D20000403E4E7D368023BD3607047D36802330F
:101D3000D36070477047937A03F003030029D8D02B
:101D400043F00403D5E700BF6011FF1F1E4B9A6EDE
:101D5000D2E9001309781878537A92F808C018422B
:101D600001EA0C0127D0937A03F00303B9B943F0D9
:101D700008039908013B91720D2B1BD8DFE803F093
:101D80000B0716071A120B0B121A0716070BD3684C
:101D9000013BD3607047D3680133D360704743F091
:101DA0000403E4E7D368023BD3607047D36802338F
:101DB000D36070477047937A03F003030029D8D0AB
:101DC00043F00403D5E700BF6011FF1F1E4BDA6E1E
:101DD000D2E9001309781878537A92F808C01842AB
:101DE00001EA0C0127D0937A03F00303B9B943F059
:101DF00008039908013B91720D2B1BD8DFE803F013
:101E00000B0716071A120B0B121A0716070BD368CB
:101E1000013BD3607047D3680133D360704743F010
:101E20000403E4E7D368023BD3607047D36802330E
:101E3000D36070477047937A03F003030029D8D02A
:101E400043F00403D5E700BF6011FF1F1E4B1A6F5C
:101E5000D2E9001309781878537A92F808C018422A
:101E600001EA0C0127D0937A03F00303B9B943F0D8
:101E700008039908013B91720D2B1BD8DFE803F092
:101E80000B0716071A120B0B121A0716070BD3684B
:101E9000013BD3607047D3680133D360704743F090
:101EA0000403E4E7D368023BD3607047D36802338E
:101EB000D36070477047937A03F003030029D8D0AA
:101EC00043F00403D5E700BF6011FF1F1E4B5A6F9C
:101ED000D2E9001309781878537A92F808C01842AA
:101EE00001EA0C0127D0937A03F00303B9B943F058
:101EF00008039908013B91720D2B1BD8DFE803F012
:101F00000B0716071A120B0B121A0716070BD368CA
:101F1000013BD3607047D3680133D360704743F00F
:101F20000403E4E7D368023BD3607047D36802330D
:101F3000D36070477047937A03F003030029D8D029
:101F400043F00403D5E700BF6011FF1F1E4B9A6FDB
:101F5000D2E9001309781878537A92F808C0184229
:101F600001EA0C0127D0937A03F00303B9B943F0D7
:101F700008039908013B91720D2B1BD8DFE803F091
:101F80000B0716071A120B0B121A0716070BD3684A
:101F9000013BD3607047D3680133D360704743F08F
:101FA0000403E4E7D368023BD3607047D36802338D
:101FB000D36070477047937A03F003030029D8D0A9
:101FC00043F00403D5E700BF6011FF1F1E4BDA6F1B
:101FD000D2E9001309781878537A92F808C01842A9
:101FE00001EA0C0127D0937A03F00303B9B943F057
:101FF00008039908013B91720D2B1BD8DFE803F011
:102000000B0716071A120B0B121A0716070BD368C9
:10201000013BD3607047D3680133D360704743F00E
:102020000403E4E7D368023BD3607047D36802330C
:10203000D36070477047937A03F003030029D8D028
:1020400043F00403D5E700BF6011FF1F1E4BD3F818
:102050008020D2E9001309781878537A92F808C0E2
:10206000184201EA0C0127D0937A03F00303B9B9AF
:1020700043F008039908013B91720D2B1BD8DFE850
:1020800003F00B0716071A120B0B121A0716070B91
:10209000D368013BD3607047D3680133D360704786
:1020A00043F00403E4E7D368023BD3607047D3688E
:1020B0000233D36070477047937A03F0030300291B
:1020C000D8D043F00403D5E76011FF1F1E4BD3F8AF
:1020D0008420D2E9001309781878537A92F808C05E
:1020E000184201EA0C0127D0937A03F00303B9B92F
:1020F00043F008039908013B91720D2B1BD8DFE8D0
:1021000003F00B0716071A120B0B121A0716070B10
:10211000D368013BD3607047D3680133D360704705
:1021200043F00403E4E7D368023BD3607047D3680D
:102130000233D36070477047937A03F0030300299A
:10214000D8D043F00403D5E76011FF1F1E4BD3F82E
:102150008820D2E9001309781878537A92F808C0D9
:10216000184201EA0C0127D0937A03F00303B9B9AE
:1021700043F008039908013B91720D2B1BD8DFE84F
:1021800003F00B0716071A120B0B121A0716070B90
:10219000D368013BD3607047D3680133D360704785
:1021A00043F00403E4E7D368023BD3607047D3688D
:1021B0000233D36070477047937A03F0030300291A
:1021C000D8D043F00403D5E76011FF1F1E4BD3F8AE
:1021D0008C20D2E9001309781878537A92F808C055
:1021E000184201EA0C0127D0937A03F00303B9B92E
:1021F00043F008039908013B91720D2B1BD8DFE8CF
:1022000003F00B0716071A120B0B121A0716070B0F
:10221000D368013BD3607047D3680133D360704704
:1022200043F00403E4E7D368023BD3607047D3680C
:102230000233D36070477047937A03F00303002999
:10224000D8D043F00403D5E76011FF1F1E4BD3F82D
:102250009020D2E9001309781878537A92F808C0D0
:10226000184201EA0C0127D0937A03F00303B9B9AD
:1022700043F008039908013B91720D2B1BD8DFE84E
:1022800003F00B0716071A120B0B121A0716070B8F
:10229000D368013BD3607047D3680133D360704784
:1022A00043F00403E4E7D368023BD3607047D3688C
:1022B0000233D36070477047937A03F00303002919
:1022C000D8D043F00403D5E76011FF1F38B50446AA
:1022D0002DED028B0698079B2271164A2260A060A2
:1022E000E360C0B20D460121B0EE408A02F088F8EA
:1022F000207B012102F084F8B5EEC08AF1EE10FADD
:1023000009DD207AB0EE480A01F0F4FF207BB0EE40
:10231000480A01F0EFFF284601F0DEFF207A002195
:1023200001F03AFE207B002101F036FEBDEC028B6D
:10233000204638BDC078000010B50B463B2800F29F
:10234000CE82DFE810F0C302B902B002A7029E02FB
:1023500095028C0283027A02710268025F025602C1
:102360004D0244023B0232022902C901C001B701F9
:10237000AE01A5019C0193018A01810178016F01E1
:1023800066015D0154014A01400136012C01220120
:1023900018010E010401FA00F000E600DC00D20092
:1023A000C800BE00B400AA00A00096008C00820005
:1023B00078006E0064005A00500046003C00CB4C90
:1023C000CB49C4F8EC3004223B2001F0E9FC0120A9
:1023D00010BDC64CC749C4F8E83004223A2001F0C9
:1023E000DFFC012010BDC14CC349C4F8E430042215
:1023F000392001F0D5FC012010BDBC4CBF49C4F808
:10240000E0300422382001F0CBFC012010BDB74C95
:10241000BB49C4F8DC300422372001F0C1FC0120A4
:1024200010BDB24CB749C4F8D8300422362001F0B0
:10243000B7FC012010BDAD4CB349C4F8D430042220
:10244000352001F0ADFC012010BDA84CAF49C4F807
:10245000D0300422342001F0A3FC012010BDA34C95
:10246000AB49C4F8CC300422332001F099FC0120A0
:1024700010BD9E4CA749C4F8C8300422322001F098
:102480008FFC012010BD994CA349C4F8C43004222C
:10249000312001F085FC012010BD944C9F49C4F807
:1024A000C0300422302001F07BFC012010BD8F4C95
:1024B0009B49C4F8BC3004222F2001F071FC01209C
:1024C00010BD8A4C9749C4F8B83004222E2001F080
:1024D00067FC012010BD854C9349C4F8B430042238
:1024E0002D2001F05DFC012010BD804C8F49C4F807
:1024F000B03004222C2001F053FC012010BD7B4C95
:102500008B49C4F8AC3004222B2001F049FC012097
:1025100010BD764C8749C4F8A83004222A2001F067
:102520003FFC012010BD714C8349C4F8A430042243
:10253000292001F035FC012010BD6C4C7F49C4F806
:10254000A0300422282001F02BFC012010BD674C94
:102550007B49C4F89C300422272001F021FC012093
:1025600010BD624C7749C4F898300422262001F04F
:1025700017FC012010BD5D4C7349C4F8943004224F
:10258000252001F00DFC012010BD584C6F49C4F806
:1025900090300422242001F003FC012010BD534C94
:1025A0006B49C4F88C300422232001F0F9FB012090
:1025B00010BD4E4C6749C4F888300422222001F037
:1025C000EFFB012010BD494C6349C4F8843004225C
:1025D000212001F0E5FB012010BD444C5F49C4F807
:1025E00080300422202001F0DBFB012010BD3F4C95
:1025F0005B49E36704221F2001F0D2FB012010BDDC
:102600003A4C5849A36704221E2001F0C9FB01205F
:1026100010BD364C5449636704221D2001F0C0FBF5
:10262000012010BD314C5149236704221C2001F0C8
:10263000B7FB012010BD2D4C4D49E36604221B2041
:1026400001F0AEFB012010BD284C4A49A3660422CC
:102650001A2001F0A5FB012010BD244C46496366F9
:102660000422192001F09CFB012010BD1F4C43499E
:1026700023660422182001F093FB012010BD1B4C9F
:102680003F49E3650422172001F08AFB012010BDB9
:10269000164C3C49A3650422162001F081FB012061
:1026A00010BD124C384963650422152001F078FBF7
:1026B000012010BD0D4C354923650422142001F082
:1026C0006FFB012010BD094C3149E3640422132043
:1026D00001F066FB012010BD044C2E49A3640422C6
:1026E000122001F05DFB012010BD00BF6011FF1F33
:1026F0004D0500004D080000CD0700004D0A000008
:10270000CD0900004D090000CD0800004D12000069
:10271000CD1100004D110000CD1000004D10000043
:10272000CD0F00004D0F0000CD0E00004D0E00003B
:10273000CD0D00004D0D0000CD0C00004D0C000033
:10274000CD0B00004D0B0000CD0A00004D22000013
:10275000CD2100004D210000CD2000004D200000C3
:10276000CD1F00004D1F0000CD1E00004D1E0000BB
:10277000CD1D00004D1D0000CD1C00004D1C0000B3
:10278000CD1B00004D1B0000CD1A00004D1A0000AB
:10279000CD1900004D190000524C534963640422C6
:1027A000112001F0FDFA012010BD4E4C4F49236469
:1027B0000422102001F0F4FA012010BD494C4C49CC
:1027C000E36304220F2001F0EBFA012010BD454C19
:1027D0004849A36304220E2001F0E2FA012010BD53
:1027E000404C4549636304220D2001F0D9FA0120D1
:1027F00010BD3C4C4149236304220C2001F0D0FA67
:10280000012010BD374C3E49E36204220B2001F049
:10281000C7FA012010BD334C3A49A36204220A20B2
:1028200001F0BEFA012010BD2E4C3749636204222C
:10283000092001F0B5FA012010BD2A4C334923626A
:102840000422082001F0ACFA012010BD254C3049CB
:10285000E3610422072001F0A3FA012010BD214CFE
:102860002C49A3610422062001F09AFA012010BD30
:102870001C4C294963610422052001F091FA0120D2
:1028800010BD184C254923610422104601F088FA36
:10289000012010BD134C2249E3600422032001F003
:1028A0007FFA012010BD0F4C1E49A36004220220B4
:1028B00001F076FA012010BD04460A481A49436027
:1028C0000422012001F06CFA204610BD054C174986
:1028D00023600422002001F063FA012010BD0020D3
:1028E00010BD00BF6011FF1FCD1800004D18000083
:1028F000CD1700004D170000CD1600004D1600004A
:10290000CD1500004D150000CD1400004D14000041
:10291000CD1300004D130000CD1200004D07000044
:10292000CD0600004D060000CD050000CD040000DE
:10293000F0B583B004469DF820C00E4615461F46EC
:10294000BCF1000F01D016460D463046022101F0C1
:1029500057FD2846022101F053FD184B276053F81C
:10296000361053F83520164B01F50070E06002F583
:102970000070206140F20110A0820020A061013BA4
:10298000FDD191F8003292F8002203F00103D20742
:1029900048BF43F0020304F10C01A37530460191D6
:1029A000FFF7CAFC019920772846FFF7C5FC227F74
:1029B000034613442046237703B0F0BDEC780000B3
:1029C000C0D401002DE9F843314D324C2E68324F0E
:1029D000DFF8E49040F2EE2802F05CFC2378002B54
:1029E00049D03B78DA0746D52B68D9F800209B1AE6
:1029F0000E2B40D902F04EFC2378002BFAD03B7806
:102A0000DB07F7D52B68D9F800209B1A0E2BF1D9DC
:102A10003921224802F036FB214800F0BFFD552144
:102A2000204802F02FFB1E4800F0B8FD00211E4890
:102A300002F028FB1A4800F0B1FD2F211B4802F0DC
:102A400021FB174800F0AAFD4421194802F01AFBA7
:102A5000134800F0A3FD1D21164802F013FB104897
:102A600000F09CFD1048002102F00CFBBDE8F8438B
:102A70000B4800F093BD2B6822789B1B2AB1B3F55D
:102A8000FA6FB7D802F006FCA6E74345FAD9B1E7DA
:102A90006012FF1F4013FF1F6413FF1F30760000FA
:102AA000180AFF1F6C7600001C780000C476000036
:102AB000F47600003C7700006813FF1F10B5382142
:102AC00088B0B248B24C02F0DDFAB24800F066FDC0
:102AD000B149B04800F034FD23681A7F012A40F262
:102AE000DA8072B6996962B6AA4800F04FFD0121FA
:102AF000AA4802F0C7FAAA49A64800F021FD636877
:102B00001A7F012A40F2038172B6996962B6A14820
:102B100000F03CFD9F4800F041FDA2499D4800F0B7
:102B20000FFDA3681A7F012A40F2DE8072B6996910
:102B300062B6984800F02AFD0121984802F0A2FAF6
:102B40009949944800F0FCFCE3681A7F012A40F29E
:102B5000B68072B6996962B68E48944C00F016FD44
:102B60008C4800F01BFD0021914802F08BFA894847
:102B700000F014FD36218F4802F084FA854800F0F9
:102B80000DFD8549834800F0DBFCD4E90023814832
:102B900000F066FD0121814802F074FA80497D4809
:102BA00000F0CEFCD4E902237A4800F059FD7948C0
:102BB00000F0F4FC7B49774800F0C2FCD4E9042320
:102BC000744800F04DFD0121744802F05BFA76492B
:102BD000704800F0B5FCD4E906236E4800F040FDD3
:102BE0006C4800F0DBFC0021714802F04BFA6948A8
:102BF00000F0D4FC3621704802F044FA654800F039
:102C0000CDFC6E4800F056FC6C488DED010AF0EEEC
:102C1000401AB0EE401AF0EE400A00F0EDFBDDED98
:102C2000011A6648B1EE611AF0EE407AF0EE610AE0
:102C3000B0EE410ACDED027A00F0DEFB14216048CF
:102C40008DED071A02F01EFA029802F00FFE41EC19
:102C5000100B02214F4800F01FFD0421594802F0DB
:102C600011FA4C4800F09AFC1521574802F00AFA74
:102C7000079802F0FBFD41EC100B0221454800F0E3
:102C80000BFD0621514802F0FDF9424808B0BDE8AD
:102C9000104000F083BC72B6DA6818691278197DAA
:102CA000007811405A7D104200F0EA809A7D02F0CF
:102CB000030209B142F0040242F00802E6E072B6F3
:102CC0001869DA68197D12780478587D044201EA9F
:102CD000020100F0A9809A7D02F0030209B142F0DE
:102CE000040242F00802A5E072B6DA6818691278A8
:102CF000197D007811405A7D104269D09A7D02F00A
:102D0000030209B142F0040242F0080266E072B622
:102D1000DA6818691278197D007811405A7D1042DE
:102D200008D09A7D02F0030209B142F0040242F099
:102D3000080205E09A7D02F0030209B142F00402A4
:102D40009108013A99750D2A3FF6DFAE01A151F8BD
:102D500022F000BF112F0000092F0000312F0000CA
:102D6000092F00000B2B0000292F0000112F00005D
:102D7000112F0000292F00000B2B0000092F00004D
:102D8000312F0000092F0000112F00005C77000098
:102D90003808FF1F180AFF1F7010FF1F3C78000043
:102DA0007C10FF1F8810FF1F9410FF1F3810FF1F9B
:102DB0001C78000098770000D07700005810FF1FA3
:102DC0000878000020780000287800004078000093
:102DD0009A7D02F0030209B142F004029108013A1F
:102DE00099750D2A3FF6A3AE01A151F822F000BF5C
:102DF000012F0000F92E0000212F0000F92E000005
:102E00002F2B0000192F0000012F0000012F0000C0
:102E1000192F00002F2B0000F92E0000212F000099
:102E2000F92E0000012F00009A7D02F0030209B183
:102E300042F004029108013A99750D2A3FF68AAED4
:102E400001A151F822F000BFF12E0000E92E000090
:102E5000512F0000E92E0000552B0000492F0000E3
:102E6000F12E0000F12E0000492F0000552B00002C
:102E7000E92E0000512F0000E92E0000F12E000085
:102E80009A7D02F0030209B142F004029108013A6E
:102E900099750D2A3FF626AE01A151F822F000BF28
:102EA000E12E0000D92E0000412F0000D92E000095
:102EB000E52A0000392F0000E12E0000E12E00007D
:102EC000392F0000E52A0000D92E0000412F000014
:102ED000D92E0000E12E000099690139996102E6BE
:102EE000996901319961FEE599690139996132E683
:102EF0009969013199612EE699690139996117E65D
:102F000099690131996113E6996901399961FDE582
:102F1000996901319961F9E599690239996107E681
:102F200099690231996103E6996902399961EDE580
:102F3000996902319961E9E5996902399961D2E5A6
:102F4000996902319961CEE599690239996102E680
:102F5000996902319961FEE52DE9F04F6F4B2DED36
:102F6000028B1B6885B0002B03906CDD6C4B0193CA
:102F70006C4E6D4B9FED6D8ADFF8C4B1DFF8C481F4
:102F800002934FF000090921694802F07BF8694B70
:102F900009EB490103EB8101584600F0D1FA01F039
:102FA0006BFA054601F068FA019A52F8043B019267
:102FB000044672B600229A6162B65F4FDFF888A1BC
:102FC00001F05AFA401BB84214D201F055FA001B26
:102FD000404544D833681A79FF211846002A3AD070
:102FE0001A686FF0FE015268904701F045FA401BE5
:102FF000B842EAD356F8040B03689B68984700214F
:103000004E4802F03FF8584600F0C8FA019B53F8CA
:10301000043C1A7F012A2AD972B69A6962B607EE71
:10302000902AF8EEE77A09F10109C7EE887A17EEDF
:10303000900A02F049FD029BE3E802010293374B3C
:103040001B684B459FDC039B002B60D105B0BDEC9A
:10305000028BBDE8F08F1B681B689847B0E701F052
:103060000BFA01210446504602F00CF8B2E772B6A2
:10307000DA6811781A6910781A7D11405A7D104269
:103080002AD09A7D02F00302002935D142F00802CD
:103090009108013A99750D2ABFD801A151F822F083
:1030A000F1300000E930000007310000E930000095
:1030B0001B300000FF300000F1300000F130000054
:1030C000FF3000001B300000E93000000731000035
:1030D000E9300000F13000009A7D02F0030200297F
:1030E000D6D042F00402D3E79A69013A9A6195E793
:1030F0009A6901329A6191E742F00402C6E79A693F
:10310000023A9A618AE79A6902329A6186E705B0C3
:10311000BDEC028BBDE8F04FFFF7D0BC5808FF1F95
:103120003808FF1F4808FF1F3810FF1F5655374249
:10313000487800007010FF1F809698001C780000EF
:10314000180AFF1F3F420F0068760000F8B5324CA6
:103150002368BFF35B8FDB074CD5304D304F314ECA
:1031600001F05EFF40B301F01FFFC4B221462846C4
:1031700000F022FC204602F00BF8012001F09EF93D
:103180000D2CEDD13946284600F026FC0346314689
:10319000284693B900F020FC01462348D9B901F034
:1031A00071FF224800F0FAF91F49284600F0B2FBEF
:1031B00001F036FF0028D6D1F8BD1B4900F0AAFB6C
:1031C00002211B4801F05EFF184800F0E7F90020DB
:1031D000FFF7C2FEC4E71449284600F09BFB02211A
:1031E000134801F04FFF114800F0D8F90120FFF714
:1031F000B3FEB5E7204600F043FD0028ADD00A49F4
:10320000064800F02DFB0B4A0B49044802F0C4F9B4
:10321000204600F03DFDA0E72810FF1F2C10FF1FE7
:1032200054780000607800001C780000180AFF1F26
:103230005C7800003408FF1F9D38000070B584B032
:10324000002440F68C230F220E2100943E483F4D6F
:10325000FFF76EFB40F68C230C220B2100943C48B8
:10326000FFF766FB40F68C231022112100943948A9
:10327000FFF75EFB40F68C230A22092100943648B2
:10328000FFF756FB02269FED350A35488DED030A00
:103290000122CDE900264FF0FF3322460821FFF737
:1032A00015F8042303229DED030A019300924FF0C9
:1032B000FF33224608212B48FFF708F81723162270
:1032C0009DED030A019300924FF0FF33224608213F
:1032D0002548FEF7FBFF062105224FF0FF339DED49
:1032E000030A01910092082122462048FEF7EEFFD2
:1032F0009FED1F2ADFED1F1A9FED1F0A1F4840F2A6
:103300002622B2EE081AF3EE080A314600F044F81D
:103310001B49284600F0A4FA1A4905F10C0000F0F8
:103320009FFA194905F1180000F09AFA174905F1BA
:10333000240000F095FA164A1649204604B0BDE86C
:10334000704002F029B900BFB010FF1F7010FF1FBE
:10335000E010FF1F1011FF1F4011FF1F00409C468F
:10336000A010FF1FD010FF1F0011FF1F3011FF1F03
:10337000B81E053F9A99993E9A99593F5810FF1FD8
:10338000687800007C78000090780000A478000045
:103390003408FF1F59040000DFED157A0170013970
:1033A000012961EEA71AB5EEC01A94BF04230223C7
:1033B000F1EE10FA07EE102A80ED022AC0ED041A91
:1033C000436111D4B4EE601AF1EE10FAC8BFB0EE4A
:1033D000601AC1EE207AB8EEC77A67EE877A27EED8
:1033E000800A80ED010A70479FED021AF1E700BFE5
:1033F000DB0F494000000000037888B023B330EEB3
:10340000207AD0ED057A9FED296AD0ED046A37EE77
:10341000017AF8EEE77A37EE217A70EEC00AC7EE4D
:10342000275A022B85EE860A20EE260A38D130EE86
:10343000817A30EEC11A37EE617AC7EE275AC5EEAF
:10344000860A60EEA60A17E030EE207ADFED181A41
:10345000D0ED057A9FED156AD0ED046AF8EEE77AB3
:1034600037EE217A30EEC01AC7EE275AF0EE610A25
:1034700085EE860A20EE260A71EE211A9FED0B6A70
:10348000C1EEA75AD0ED027AB6EE007A67EE877ADF
:1034900085EE867A27EE267A87EE271A08B07047DF
:1034A00030EEC11ADFED020AE6E700BF000070420D
:1034B0000000000090ED010A704700BF70B5012ABE
:1034C0008AB008BF0A22A1B34FF0210E02E05FFAD2
:1034D00086FE2946B1FBF2F502FB15145FFA84FC67
:1034E000092C0CF1300498BF5FFA84FC0EF128041B
:1034F00088BF0CF1370C6C4488BF5FFA8CFC91429A
:103500000EF1FF3604F824CCE1D24BB10EF1FF3EB0
:103510005FFA8EFE0EF128036B442D2203F8242C53
:10352000036801A95B68CEF12202714498470AB092
:1035300070BD30228DF825204FF0210EE5E700BF49
:103540002DE9F0418C688AB0DCB10025884606463A
:103550002F462B46212201A9404600F053FA33683A
:10356000202C22465B6828BF202201A93046154442
:10357000A41A98470744002CEBD138460AB0BDE89E
:10358000F081274638460AB0BDE8F0810029BABF6D
:1035900049422D2300230A22FFF790BF00B503689C
:1035A00083B040F60D22ADF804205B68022201A929
:1035B000984703B05DF804FB2DE9F04393B09DF804
:1035C00068709DF86C90012F45D91C4652EA04039F
:1035D000804616463AD0412502E0D5B206460C4652
:1035E00021463A463046002302F056FA5FFA82FC42
:1035F000BCF1090F0CF1300394BF5FFA83FC0CF1AE
:10360000370C05F1480388BF5FFA8CFC6B44BE425F
:1036100074F1000405F1FF3203F844CCDDD2B9F1B6
:10362000000F07D0013DEDB205F148036B442D2298
:1036300003F8442CD8F8003001A95B68C5F14202B8
:1036400029444046984713B0BDE8F08330238DF8F5
:1036500045304125E3E7002013B0BDE8F08300BF0B
:1036600010B5B3F1000C82B007DB0A210024CDE9CC
:103670000014FFF7A1FF02B010BD52424FF001014C
:103680004FF00A03009301916CEB4C03FFF794FF9A
:1036900002B010BDFFFFFFFF2DE9F04F55EC104BBE
:1036A00087B006460F4610EE102A10EE100A2B4681
:1036B000294602F0BBF9002840F0AA8025F0004915
:1036C0005F4B4FF0FF322046494602F0AFF948B950
:1036D0005B4B204649464FF0FF3202F089F9002843
:1036E00000F08D80574B4FF060422046294602F093
:1036F00093F900287AD1544B4FF060422046294676
:1037000002F06CF9002871D10022002320462946DE
:1037100002F064F9002875D18246002F7BD00FF2A9
:103720001819D9E9008949494FF0000B00204B4690
:103730000BF1010B424603F069FD5FFA8BF3BB42CC
:10374000F5D302460B462046294601F031FF0F2FE4
:1037500028BF0F270D460446019702F07DF9074662
:1037600002F062F802460B462046294601F01EFF91
:1037700053460A2204460D4630463946FFF79EFE60
:10378000019FDFF8D8902E238DF808300DF1090243
:103790007B1E824652FA83FB02AF4FF0000842467E
:1037A0004B462046294603F031FD0D46044602F003
:1037B00053F9C0B200F1300307F8013F02F044F8BA
:1037C00002460B462046294601F0F0FEBB45044662
:1037D0000D46E4D1019A336801325B68D2B202A986
:1037E00030469847504607B0BDE8F08F3368184917
:1037F0005B680322304607B0BDE8F04F18473368D6
:103800001449F5E705F100431D464FF0010A84E72E
:1038100033681149ECE70D4B00222046294601F0A0
:10382000C7FE02F019F9534601460A22304607B096
:10383000BDE8F04FFFF742BE000000A09999B93FE4
:10384000FFFFEF7FFFFFEF41FFFFEFC10000E03F11
:10385000D4780000D0780000CC780000000024402C
:10386000F8B50026044606604660866029B1084621
:103870000D4603F0C5F8074608B92046F8BD0130EB
:1038800002F0F4FA0028F8D0C4E900070670A76037
:10389000294603F033F82046F8BD00BF10B50446B2
:1038A000006802F0EBFA204610BD00BFF8B50446F0
:1038B000154632B9036803B11A700023A36020468D
:1038C000F8BD43689A420E461CD90068511C03F0AB
:1038D00085F8074660B1A368206065600BB9037086
:1038E0002768A5603146384603F008F82046F8BD41
:1038F000206810B102F0C2FA276000236360A36061
:103900002046F8BD0768A5603146384602F0F6FF4C
:10391000ECE700BF38B505460C4649B1084603F050
:103920006FF8214602462846FFF7C0FF284638BDFB
:10393000A960284638BD00BF2DE9F8430446006859
:10394000A36888420D46164609D8C218914206D28D
:103950000F1A4FF0010936B92046BDE8F8834FF041
:103960000009002EF8D0626803EB060890450CD9D8
:1039700008F1010103F032F80028EDD0A368C4E992
:10398000000813B903702068A368B9F1000F08D1CB
:103990002946184402F0B2FFC4F808802046BDE86A
:1039A000F8833246C119184400F04EF8236800220B
:1039B00003F80820F0E700BF10B582B000238DF8AF
:1039C0000410012201A904468DF80530FFF7B4FF69
:1039D000204602B010BD00BF826808B50B463AB160
:1039E00061B1006802F020FEB0FA80F0400908BD25
:1039F00031B11878B0FA80F0400908BD0368F8E7E3
:103A0000012008BDBAB138B50C4621B185689D4288
:103A100002D800230B7038BDED1A02F1FF3C01689B
:103A2000654528BF654619442A46204602F0E6F956
:103A30000023635538BD704708B5FEF7C3FFFFF795
:103A400085FB01F027FCFAE701B441EA000313F01B
:103A500003036FD1403A41D351F8043B40F8043B93
:103A600051F8043B40F8043B51F8043B40F8043B58
:103A700051F8043B40F8043B51F8043B40F8043B48
:103A800051F8043B40F8043B51F8043B40F8043B38
:103A900051F8043B40F8043B51F8043B40F8043B28
:103AA00051F8043B40F8043B51F8043B40F8043B18
:103AB00051F8043B40F8043B51F8043B40F8043B08
:103AC00051F8043B40F8043B51F8043B40F8043BF8
:103AD00051F8043B40F8043B403ABDD2303211D398
:103AE00051F8043B40F8043B51F8043B40F8043BD8
:103AF00051F8043B40F8043B51F8043B40F8043BC8
:103B0000103AEDD20C3205D351F8043B40F8043B97
:103B1000043AF9D204320AD0D2071CBF11F8013B93
:103B200000F8013B03D30B7803704B78437001BC62
:103B3000704700BF0C2A4AD310F0030311D0C3F121
:103B40000403D21ADB071CBF11F8013B00F8013B4C
:103B500007D311F8013B00F8013B11F8013B00F8D5
:103B6000013B11F003033FF475AF30B4043AC91AB6
:103B7000C3F1040C51F8044B022B19D0032B0BD0CA
:103B8000240A51F8043B1D0644EA050440F8044B9E
:103B90001C46043AF4D216E0240E51F8043B1D02F0
:103BA00044EA050440F8044B1C46043AF4D20AE007
:103BB000240C51F8043B1D0444EA050440F8044B6E
:103BC0001C46043AF4D20432B1EB0C0130BC043A86
:103BD000A0D3013A11F8013B00F8013BF9D20B7870
:103BE00003704B7843708B78837001BC704700BFC3
:103BF00008B50F4C636B58030DD4636B59050FD494
:103C0000636B1A0511D4636BDB04F3D500F012F873
:103C1000636B5803F1D500F05BFD636B5905EFD57D
:103C200000F008F8636B1A05EDD500F003F8EAE739
:103C30000080044008B5FFF7DBFF00BF014B1022F6
:103C40001A80704700200540704700BF0B490A6882
:103C500048B108B5EC461318ACF50050834204D2C5
:103C60000B60104608BD1046704702F0F9F80C23AF
:103C70004FF0FF320360104608BD00BF5C08FF1F15
:103C8000D0E9003213430CBF01200020704700BF71
:103C900001220023C0E90023704700BF074BDA78F8
:103CA000802A01D000207047054906484864002258
:103CB0005A70DA78802AFCD00120704700E0074073
:103CC0000080044000002822074BDA78012A01D046
:103CD0000020704760225A70DA78802AFCD1034BAA
:103CE000034A5A640120704700E007400080044006
:103CF0000000060201F1FF3C70B56546002401E0BA
:103D000070460134B0FBF2FE02FB1E03092B03F1E7
:103D100030068ABF3733F3B2DBB2904205F8013F79
:103D2000EED2631C0022CA54C8187CB162461CF84B
:103D3000015F10F801ED8CF800E0A1EB0C030232FA
:103D4000013B521A23449A420570EFDB084670BDCE
:103D5000704700BF10B4114B53F8302092F88042E6
:103D600034B10123A9B182F880305DF8044B70476B
:103D700003EBC0035B681A6829B922F002025DF800
:103D8000044B1A60704742F003025DF8044B1A605E
:103D9000704782F800315DF8044B7047EC78000002
:103DA0003F2835D8042A33D830B42A4B2A4D53F84B
:103DB000223005EBC0021B045468226812F4E06252
:103DC00039D0264A2648C2F82C012648C2F83001CC
:103DD0002548C2F834012548C2F838012448C2F801
:103DE0003C0104F14042A2F592207C2811D82148E0
:103DF00072B6226822F4702222601343C4F3840254
:103E000043F0807340F82210236062B630BC7047E4
:103E10007047A2F594207C2815D9A2F596207C281D
:103E200013D9A2F598207C2811D9A2F59A227C2AD0
:103E3000ECD81148DCE755F8300080F880224FF4C8
:103E400080722260BDE70D48D2E70D48D0E70D48EB
:103E5000CEE700BFD8780000EC7800000002FF1F1A
:103E60000108FF1FCD07FF1F9907FF1F6507FF1FF1
:103E70003107FF1F6408FF1FAC09FF1FDC08FF1F8D
:103E80003C09FF1F6C09FF1F034B002210215A61E0
:103E90005A6018605961704700D00340704700BFF6
:103EA0004FF0E02C2DE9F0414FF00068CCF8048190
:103EB0004FF08058CCF804814FF00058CCF80481C2
:103EC0002F4A3049304C314D314E4FF08048CCF8BC
:103ED0000481282300204EF6FF7E09274FF000487A
:103EE000CCF804814860C1F808E0CB604B61CB613D
:103EF0004B62CB624B63CB634B64D3605361D36142
:103F00005362D3625363D36353640F606860C5F830
:103F100008E0EB606B612F606060C4F808E0E3606C
:103F2000636127605060C2F808E0D3605361176096
:103F3000F16A41F40071F162716802F5803241F07A
:103F40000071716047F6FF740821506082B0946080
:103F5000D3605361116001F041FAFFF79FFF0D4CF0
:103F600023680093009B132BFAD900F06BFF2368A2
:103F70000193019BB3F5967FF9D302B0BDE8F081C0
:103F800000900B400080034000800B4000900340F5
:103F9000008004406012FF1FA0F14202012A034684
:103FA00025D910B5934A002992F800E040F3958096
:103FB000012202FA0EF0814228D2A3F1020CBCF1D8
:103FC000240F3CD8DFE80CF06B74743B3B6B6B3B0D
:103FD0003B3B3B3B6B3B82823B3B3B3B3B3B3B3B73
:103FE0003B3B3B7B7B3B3B3B3B6B6B6B6B00814AC7
:103FF00010780B2895BFC0F10C000C3801FA00F0C6
:1040000041FA00F0422B51D001F06ABA3F2B15D88B
:10401000794951F8330090F8804201EBC301002C3C
:104020007AD04B6880F880204FF4A272012180F88A
:1040300080121A601A6822F020021A6010BD6F4ABE
:10404000926802FB011222FA0EF2BCF1240F69D829
:10405000DFE81CF02A0123011C0115010E010701F4
:104060000001F900F200680068006800EB006800D9
:10407000E400C80068006800C100BA00B300AC00EA
:1040800068006800680068006800A5009E0068007D
:104090006800680068009700900089008200584A14
:1040A000926802FB011222FA0EF2CEE701F0FAB991
:1040B000544A926802FB011222FA0EF2C5E7524AF4
:1040C000926802FB011222FA0EF2BEE74F4A926892
:1040D00002FB011222FA0EF2B7E73F28AED8464A99
:1040E00052F8301091F8800202EBC30270B1012047
:1040F000536881F800014FF4A272012081F8800218
:104100001A601A6822F020021A6010BD53681A68FB
:1041100022F002021A60EEE74B681A6842F00302CE
:104120001A6081E73F2B89D87F291846D4BF002128
:104130000121FFF70FFE304B03EBC00253F83010A4
:10414000536801244FF4A27281F880421A601A6801
:1041500022F020021A6010BD29482D4B82644FF4D2
:104160005171D96210BD2648294B02644FF4517138
:10417000996210BD2248264B82634FF451715962F7
:1041800010BD1F48224B02634FF45171196210BDDC
:104190001D48204B82614FF45171D96410BD1A48FB
:1041A0001C4B02614FF45171996410BD1348184BB8
:1041B000826140F24441996010BD1048144B026185
:1041C00040F24441596010BD0C48134B026440F268
:1041D0004441996110BD09480F4B826340F244414C
:1041E000596110BD09480B4B826140F2446159602E
:1041F00010BD00BF6008FF1FEC7800000080034086
:1042000000900B400090034000800B4000900C4059
:1042100000B0044000A0044000C004402648274BE2
:10422000026140F24461196010BD2548254B82614E
:1042300040F24441596010BD2348244B826240F251
:104240004441196110BD2048204B026240F24441B4
:10425000D96010BD1A481B4B826240F24441D960BC
:1042600010BD1748174B026240F24441996010BDDF
:104270001548144B026340F24441196110BD1248C5
:10428000104B826440F24441D96110BD1048114B7B
:1042900082614FF45171596310BD0D480D4B02619D
:1042A0004FF45171196310BD0548064B026140F28D
:1042B0004441196010BD00BF00900C4000A00440B4
:1042C00000900B4000C004400080034000B0044058
:1042D00000900340009004400346102B28BF102399
:1042E000034A012B38BF012310781370704700BFB9
:1042F0006008FF1FA0F11003012B00B567D9DFEDA7
:10430000377A374BB4EEE70AF1EE10FA47F612228D
:104310004EBF4FF0020C4FF0010C1A46DFED316A30
:10432000002322FA03F107EE901AF8EEE77A27EE5F
:10433000A67AB4EEC70AF1EE10FA07DA0133072BBA
:10434000EFD1D20907EE902AF8EEE77A87EE807A6D
:104350004FF6FF7EC11EF6EE007A77EE677AFCEE2E
:10436000E77A17EE902A724528BF7246012924D9B0
:1043700011280FD801280BD90121814044F2841063
:10438000014217D111F4CC600ED111F4403F22D17B
:104390005DF804FB1E280AD81C2802D91249002007
:1043A0000DE014380328F3D81049002007E0233823
:1043B0000328EDD80E49002001E00E49002043EA11
:1043C000CC03086048608A600B605DF804FB0A4A11
:1043D0004FF0010CA2E70949F1E700BFC0E1E4405A
:1043E000008793030000803700800B40008003406B
:1043F00000900B40009003400024F40000900C401B
:104400003F2820D81B4A02EBC00301295B680FD06C
:1044100004291DD052F83000002280F8802299B182
:10442000022922D003290DD14FF481721A607047FE
:1044300052F830004FF4A27280F880121A601A68A5
:1044400022F020021A6070474FF480721A607047A1
:1044500052F830104FF4A272012081F880021A60E5
:104460001A6842F020021A60704740F203121A6084
:10447000704700BFEC78000072B60E494FF0E022A2
:1044800093690868D2F8042D62B6520102D5322B26
:1044900088BF0130C3F52F33074A03F21F334FF4AF
:1044A0007A719B08A2FB032301FB00F000EB930051
:1044B000704700BF6012FF1F176CC1162DE9F8434B
:1044C000044672B6214F4FF0E02293693D68D2F85E
:1044D000042D62B6520102D5322B88BF01350CB9CA
:1044E000BDE8F883DFF86890DFF86880A9EB030384
:1044F0009B08A8FB03234FF47A7202FB05F505EB3A
:1045000093054FF0E02672B6B1693A68D6F804CD4B
:1045100062B6A9EB01039B08A8FB03031CF0806FA4
:10452000C5EB93034FF47A7002D0322988BF013271
:1045300000FB0233B3F57A7F04D3013CD0D005F5FC
:104540007A75E0E700F0A6FEDDE700BF6012FF1F0E
:104550001FBF0200176CC116431E032B16D872B67C
:104560000B4951F8230078B130B40A4CB0F800C0C0
:1045700034F81320456841F82350A2EB0C0224F8CC
:10458000132062B630BC704762B670470020704797
:10459000F412FF1F4413FF1F013803280BD872B613
:1045A000074B53F8203043B100205B680130002BEB
:1045B000FBD162B67047002070471846F9E700BF8C
:1045C0001C13FF1F10B472B61A4A1B4C042312F8B6
:1045D000011B090743F0010C05D554F8331069B1EC
:1045E00054F83C10C9B10433142BF0D162B6134B0C
:1045F00000221A705DF8044B00F0AEBC0F4904EBCA
:10460000C302083050600A780D4844F83300013A7C
:104610000A7062B65DF8044B7047084A094904EB1A
:10462000CC0308305860137844F83C10013B1370F9
:1046300062B6EFE76C7B00000000FF1F4C13FF1F0A
:1046400088004000C8004000421E032A0ED81C4BC0
:10465000400140F0100010B4034472B6194CA05C45
:1046600003281DD8DFE800F0141603197047052051
:10467000A05413F0080F088814BFC82288220831FC
:1046800042EA004259601A6062B65DF8044B704716
:104690000320EDE708330220EAE708330420E7E7C8
:1046A000094B53F8220038B1084B53F822004160FF
:1046B00043F8221062B6E8E743F82210034BF7E70D
:1046C0000000FF1F3C13FF1F1C13FF1F2C13FF1FB5
:1046D0002DE9F04FDFF80CA3DFF80CB385B03DE017
:1046E000B04D9E0805EBC607013A796813F0080340
:1046F000D4B2A1F1080040F0B88055F836204FEA56
:10470000124C120C21F808CC00F0A78021F8063CCE
:1047100041F8043CA44B53F82420002A00F0018205
:10472000A24B53F82420506043F82400A04B33F8E8
:104730001420944423F814C000F0EEFB002800F08D
:10474000E98117F0080F9B4B00F1080018BF5B468A
:10475000786045F8363008238AF880309AF880303F
:104760005907DCB21BD5944B1B78ABB193490A783F
:1047700002F0FF032AB1013BDBB20B70002B00F00B
:1047800046838F490A7802F0FF032AB1013BDBB26E
:104790000B70002B00F0EB8104238AF8803014F0BA
:1047A000080200F0CC819AF89020D3B2120997D178
:1047B000DFF8F0919B0809EBC30459F833006468F3
:1047C000C0F3830009287CD00FD80138012808D80D
:1047D0007C4A158842F22100854200F0FB8149F8AD
:1047E00033B001238AF89430B5E70D28F9D1D4E924
:1047F0000007754D49F833B0724E744CC9F810205B
:1048000083B240F2816CC9F818202A6063454FF0EA
:104810000102C6E90007227000F2FF80B3F5D06FF5
:1048200080F0CB82B3F5817F00F0268240F2DE80FB
:1048300040F2023293427BD107F07F07042F00F24F
:104840000881020C40F00581614911F8273043F0DE
:10485000020301F82730134670E017F0080F554B9C
:1048600018BF5B4645F8363075E700F075FB5949CF
:10487000594A51F82430002B00F05781586841F80C
:104880002400115D03F108007860032905D8DFE8F2
:1048900001F0120F1502042111551A8817F0080FA4
:1048A00014BFC823882343EA024345F8363052E751
:1048B00002211155F1E703211155EEE705211155AC
:1048C000EBE7414D2A683AB34449404C0F884448CD
:1048D00094F800E00678402F3B4628BF4023BEF105
:1048E000000F8EF0010E84F800E046F0020486F01E
:1048F0000106067009EBC400426014BFC82088207E
:1049000040EA03401A44FB1A9BB249F834000B807A
:10491000002B00F036812A602A4B1A88B2F5A06F6E
:104920007FF45FAF9A788AF8982000225A7058E78F
:10493000B3F5A06F40F08D8000221346B6F806C094
:104940002748944528BF944667460278402F28BFE1
:10495000402742F0020E3E0409EBCE0846F0C8069E
:10496000C8F8043049F83E6000263B442670BCEB92
:10497000070782F00106067040F01181BCF13F0F7D
:104980004FF0010509D946F00206027009EBC60294
:1049900025705360882349F8363001238AF8943013
:1049A0001FE700BF0000FF1FF412FF1F0413FF1FCB
:1049B0004413FF1F880040004013FF1F4113FF1FD7
:1049C0006C13FF1F1413FF1FE812FF1FE512FF1FD8
:1049D000C02007401C13FF1F3C13FF1FE612FF1FE0
:1049E000E412FF1F00200740C8004000802B00F0A9
:1049F0008B81822B2DD107F07F07042F29D8A74A5E
:104A000000231380A64B13F827309F0740F1FC8149
:104A100001231370A14B022290E742F2210C63455F
:104A2000BBD01DD942F2212293420DD1BFB2002F3B
:104A300082D19C4B1A689C4B1A609C4BC0F3074078
:104A400000221870134679E742F2213293423FF474
:104A500073AF0F238AF8C03001238AF89430C0E680
:104A6000B3F5086F00F04A81B3F5106FF1D1904BA8
:104A7000C0F307400425187059F835301A0606D4DB
:104A80000135142D0CD059F835301A06F8D509EB3C
:104A9000C50301355868083800F05EFA142DF2D1CC
:104AA000844A854B0292854A0192854E854ADFF8F9
:104AB00048820394009200251C4656F8047B2FB1CF
:104AC00038467F6800F048FA002FF9D1009BD8F8EB
:104AD000007043F8045B46F8045C00932FB138463D
:104AE0007F6800F039FA002FF9D1029B48F8045B87
:104AF00043F8045B0293019B23F8025B0193237844
:104B0000023B032B00F20981DFE813F03F010401AF
:104B10003F0104016C4A45F83600137801331370E5
:104B200019E643F82400674BFEE5115D022926D003
:104B30007FF611AE03291DD1012313550BE6E007C3
:104B40006ED4210621D4A20708D5604B93F88820A3
:104B50000221D2B283F8882083F88010E30603D5BF
:104B60005A4B102283F8802005B0BDE8F08F00F08A
:104B70006DFB11E617F0080F14BF03230223135532
:104B8000E9E53F2F98BF0022C5E6504B80220D215A
:104B900083F8C01083F88020A207DFD5D5E746F060
:104BA00002060270402F09EBC6003A4628BF402299
:104BB00043601004134440F088000121BA1A49F8F8
:104BC0003600217055D02B60414B1A8001238AF8A2
:104BD000943006E692885AB93E4AE51D14F8011B46
:104BE00002F8011FAC42F9D13B4A1268862A3CD038
:104BF0003A4C3B4825780278002D85F00105257058
:104C000042F0020482F00102027009EBC4024FF08C
:104C10000000506014BFC822882249F83420DEE525
:104C20002A4B2F482F49304C022583F894500270AC
:104C30002E480C602E4D48608C600D24CD60FF2006
:104C40000A618A6183F8C04001219F2483F88800AB
:104C500083F8800083F8982083F88C0083F88440E0
:104C600083F8941005B0BDE8F08F224A0F20107031
:104C7000BEE73F2FA7D890E607F07F07042F3FF647
:104C8000E8AE000C7FF4E5AE054A12F8273023F0B9
:104C9000020302F82730002213464FE6EC12FF1FF2
:104CA000C02007406012FF1F6813FF1F6413FF1F1F
:104CB0004013FF1F2C13FF1F3C13FF1F4413FF1F44
:104CC000F412FF1F0413FF1F4C13FF1F00200740A7
:104CD000E612FF1F5B13FF1F5C13FF1FE512FF1F90
:104CE000E412FF1F0000FF1F880040006412FF1F36
:104CF000A412FF1F4113FF1F1C13FF1F484B4949FC
:104D00001B780B700B4619E6464A00231380454B6F
:104D1000022213E64FF001032370434BB34204F128
:104D200001047FF4CAAE414E039CDFF81481404F6A
:104D300000233370042518F8013B3E4AAB541B078F
:104D400025D445F0020145F0030204350023142D5B
:104D500049F8313049F83230EDD1374F25783A787B
:104D600042F0020009EBC00C85F00106CCF80430DB
:104D7000002D4DD1882382F0010226703A7049F847
:104D8000303001238AF894302BE52570C5E700F018
:104D9000C3F8002832D009EBC5030830586049F841
:104DA000357000F0B9F808B345F0010309EBC30210
:104DB0000830506049F833B0C3E7204A5368002BED
:104DC0003FF447AE000CBFB204E013690C32002B75
:104DD0003FF43FAE11888142F7D15188B942F4D1F6
:104DE000000A03280CBF1A781289A7E5337801332B
:104DF000337045F0010349F83300A2E7337849F8EE
:104E0000350001333370CCE7064B022296E500BE35
:104E10002670C82382F001063E7049F83030BCE5A8
:104E20004013FF1FEC12FF1F0413FF1F4C13FF1F43
:104E300088004000C0200740E412FF1F187B0000DC
:104E40006C7B000010B500F06BFB0023234A194671
:104E500042F8331002EBC3000133142B4160F7D149
:104E60001F48204C436B43F480234363D4F800383D
:104E700000F5283000F5807043F04073C4F8003826
:104E8000032480F84440184BA02480F84040C2F32B
:104E9000072483F89C40C2F30744120E83F8B04005
:104EA0004FF0FF0C83F8B420012283F880C00F4C30
:104EB00083F888C083F810C083F8942001704FF005
:104EC000E02183F884204FF0700C4FF4001210237F
:104ED00084F835C0C1F80421037210BD0000FF1F23
:104EE0000080044000D000400020074000E400E0C3
:104EF00000F0ACB800F07CB800F056B800F090B804
:104F000000F078B900F052B90846114600F0BAB87E
:104F1000084600F03DB900BF72B60D490B68B3FA00
:104F200083F00B2810DC4FF00042C24023EA02035A
:104F30000B6062B6074A00EBC000C10002EBC00084
:104F4000002353504360704762B60020704700BF93
:104F5000280AFF1FD003FF1F0E4BC31AB3F5587F5B
:104F600010D20D4A127872B972B60C4A0C49A2FBE3
:104F7000032308684FF000421B0922FA03F303439E
:104F80000B6062B67047074A1278002AECD0FFF730
:104F900019BB00BFD003FF1F4C13FF1F398EE3382E
:104FA000280AFF1F4013FF1F38B50F4C206878B147
:104FB00043880288C11801339A420D7A02D943808E
:104FC000284638BDFFF7C8FF00232360284638BDB8
:104FD000064B1B782BB10320FFF7BEFA2060002898
:104FE000E6D14FF0FF35EBE75013FF1F4013FF1FD3
:104FF00010B5094C206818B143881844007A10BDD8
:10500000064B1B782BB10320FFF7A6FA206000287F
:10501000F2D14FF0FF3010BD5013FF1F4013FF1FA0
:10502000084B094A1B6810B594881BB11A885B8825
:10503000D31A1C440CB1204610BD00F02BF92046B9
:1050400010BD00BF5013FF1F4413FF1F0B4B1B78F5
:105050009BB110B50A4C206848B1FFF77DFF0023D3
:1050600003202360FFF778FA30B1FFF775FF0320C4
:10507000FFF772FA0028F8D110BD70474013FF1FE8
:105080005013FF1F2DE9F04FDFF8F89083B0012295
:1050900089F80020019179B3374FDFF8EC80019D4A
:1050A000364EDFF8E8A083463868A8B3B0F802E0CF
:1050B000CEF1400CAC4528BFAC460EEB0C040022F0
:1050C000A4B23270A5EB0C05448000F10802BCF1DB
:1050D000000F0AD00EF1FF3E7244DC441BF8014B76
:1050E00002F8014FDC45F9D144883F2C0BD805224A
:1050F0008AF80020002DD7D10198002389F80030CC
:1051000003B0BDE8F08F4022028001460420FFF783
:105110009BFA00223A60EAE798F800201AB3184C8C
:1051200008E0013C18D03278B2B900F0B3F898F832
:105130000020C2B10420FFF72FFA0728F1D84FF062
:10514000010389F80030FFF7E7FE38600028ADD191
:10515000013C89F80000E6D101234FF0FF303370A5
:1051600003B0BDE8F08F00234FF0FF3089F8003026
:1051700003B0BDE8F08F00BF5813FF1F5413FF1F8B
:10518000214801005513FF1F4013FF1F6C13FF1F21
:1051900000B583B0034601210DF107008DF80730FB
:1051A000FFF770FF03B05DF804FB00BF38B50E4D8C
:1051B0000E4C28680123237028B140880023C0F1D9
:1051C0004000237038BD0A4B1B7813B900202070B3
:1051D00038BD0420FFF7E0F90728F7D8FFF79CFE59
:1051E00028600028E9D1F1E75813FF1F5513FF1F6E
:1051F0004013FF1FF8B5114B1B788BB1104E114DAA
:10520000346801272F7064B10F4B00271F7063882B
:10521000238021460420FFF717FA376000232B7004
:10522000F8BDFFF779FE084B014620B104201C7041
:10523000FFF70AFAF2E71F70F0E700BF4013FF1F05
:105240005813FF1F5513FF1F6C13FF1F38B50E4B6C
:105250001B7853B90D4C216841B103F0FF054B8811
:105260000B800420FFF7F0F9256038BDFFF754FEEE
:10527000014620B1BDE838400420FFF7E5B9044BF2
:1052800001221A7038BD00BF5513FF1F5813FF1FAE
:105290006C13FF1F2DE9F843324E337863B1324F60
:1052A0003A784AB90122D9073A7043D49A0726D4EA
:1052B00000225B073A7001D4BDE8F8832B4B1A68D3
:1052C000002AF9D0EFF30582002AF5D1EFF310851B
:1052D00072B6186800283AD0254C2178002936D1BA
:1052E00042691A6001232370002A37D0916105B901
:1052F00062B600258368457798472570DCE7DFF8BC
:105300007C8098F80020002AD2D00025DFF8709029
:105310002B4659F82340236820461B6901359847DE
:1053200008B12369984798F80020EBB29A42F0D868
:105330003378BDE7FFF774FE68B90E4B1B780BB9E5
:105340003378B3E7337803F0FE033370AEE7002D14
:10535000B2D162B6B0E700F0E1F8EEE7064B1A60B2
:10536000C5E700BF2C0AFF1F6D13FF1F7013FF1F3F
:105370007C13FF1F147B00008013FF1F9C13FF1F73
:105380008413FF1F70B5EFF3108272B60C4C2068C7
:1053900080B10C4E00254369236073B19D6102B951
:1053A00062B6836845779847EFF3108272B620683B
:1053B0000028F0D102B962B670BD3360EFE700BFDC
:1053C0007813FF1F7413FF1FFFF7DCBF024A136837
:1053D00001331360704700BF6012FF1F2A4B2B4A36
:1053E0006020E1211870597013782948082B34D0B7
:1053F0000A2B20D00C2B274B0CBF35215D2112220C
:105400008160C2609960DA60234B21491B78214A90
:10541000CBB101230B621362204B1D491B781D4A3F
:10542000012B13D9042B1BD884234B6253621C4BD2
:1054300001221A707047174B392113228160C26014
:105440009960DA60E0E70B621362E5E780234B6264
:105450005362134B01221A7070470E4B2121ECE767
:10546000082B06D885234B6253620D4B01221A701C
:105470007047102B94BF862387234B625362084BDF
:1054800001221A70704700BF004007402D0AFF1F1D
:1054900000B0034000B00B409D13FF1F2E0AFF1FFA
:1054A0009E13FF1F0B4A0C49D36A43F48053D36207
:1054B0000B784BB1094B802283F82120074B80F3F6
:1054C0000C0000B218807047044BC02283F82120E2
:1054D000F4E700BF008004409D13FF1F00C00C4094
:1054E0000B4A0C49D36A43F40053D3620B784BB197
:1054F000094B802283F82120074B80F30C0000B277
:1055000018807047044BC02283F82120F4E700BFC5
:10551000008004409D13FF1F00D00C40704700BF67
:1055200010B584B072B6FEF7B9FB174A174951603F
:10553000702080231070137013781B06FCD5D4687C
:10554000FEF7C2FB62B6124B9C423CBF04EB8404E4
:10555000640020460F4C01A90A22FEF7CBFB01A9EB
:105560002046002311F8012B01333AB10A2B20F811
:10557000022FF7D11623237004B010BD5B00DBB2FD
:10558000237004B010BD00BF0000024000000741BE
:1055900080969800BC0AFF1F03460846194600F093
:1055A000FDBF00BF81F0004102E000BF83F0004377
:1055B00030B54FEA41044FEA430594EA050F08BFAE
:1055C00090EA020F1FBF54EA000C55EA020C7FEA72
:1055D000645C7FEA655C00F0E2804FEA5454D4EBEF
:1055E0005555B8BF6D420CDD2C4480EA020281EAB9
:1055F000030382EA000083EA010180EA020281EAF1
:105600000303362D88BF30BD11F0004F4FEA013142
:105610004FF4801C4CEA113102D0404261EB410151
:1056200013F0004F4FEA03334CEA133302D05242D7
:1056300063EB430394EA050F00F0A780A4F1010493
:10564000D5F1200E0DDB02FA0EFC22FA05F28018CD
:1056500041F1000103FA0EF2801843FA05F35941B3
:105660000EE0A5F120050EF1200E012A03FA0EFC32
:1056700028BF4CF0020C43FA05F3C01851EBE3715C
:1056800001F0004507D54FF0000EDCF1000C7EEB79
:1056900000006EEB0101B1F5801F1BD3B1F5001FB7
:1056A0000CD349085FEA30004FEA3C0C04F10104D6
:1056B0004FEA445212F5800F80F09A80BCF1004FFF
:1056C00008BF5FEA500C50F1000041EB045141EA81
:1056D000050130BD5FEA4C0C404141EB0101013C4A
:1056E00028BFB1F5801FE9D291F0000F04BF014639
:1056F0000020B1FA81F308BF2033A3F10B03B3F10B
:1057000020020CDA0C3208DD02F1140CC2F10C029A
:1057100001FA0CF021FA02F10CE002F11402D8BFF8
:10572000C2F1200C01FA02F120FA0CFCDCBF41EAC4
:105730000C019040E41AA2BF01EB0451294330BD93
:105740006FEA04041F3C1CDA0C340EDC04F1140470
:10575000C4F1200220FA04F001FA02F340EA030047
:1057600021FA04F345EA030130BDC4F10C04C4F18D
:10577000200220FA02F001FA04F340EA030029466D
:1057800030BD21FA04F0294630BD94F0000F83F4B7
:10579000801306BF81F480110134013D4EE77FEA9A
:1057A000645C18BF7FEA655C29D094EA050F08BFE6
:1057B00090EA020F05D054EA000C04BF19461046C7
:1057C00030BD91EA030F1EBF0021002030BD5FEA0B
:1057D000545C05D14000494128BF41F0004130BD33
:1057E00014F580043CBF01F5801130BD01F0004587
:1057F00045F0FE4141F470014FF0000030BD7FEAFA
:10580000645C1ABF194610467FEA655C1CBF0B46F4
:10581000024650EA013406BF52EA033591EA030F0B
:1058200041F4002130BD00BF90F0000F04BF002103
:10583000704730B54FF4806404F132044FF0000536
:105840004FF0000150E700BF90F0000F04BF0021AF
:10585000704730B54FF4806404F1320410F0004515
:1058600048BF40424FF000013EE700BF42004FEA10
:10587000E2014FEA31014FEA02701FBF12F07F438D
:1058800093F07F4F81F06051704732F07F4208BF44
:10589000704793F07F4F04BF41F40021704730B54B
:1058A0004FF4607401F0004521F000411CE700BF97
:1058B00050EA010208BF704730B54FF000050AE01A
:1058C00050EA010208BF704730B511F0004502D51B
:1058D000404261EB41014FF4806404F132045FEA1D
:1058E000915C3FF4D8AE4FF003025FEADC0C18BFC6
:1058F00003325FEADC0C18BF033202EBDC02C2F1B8
:10590000200300FA03FC20FA02F001FA03FE40EA49
:105910000E0021FA02F11444BDE600BF4FF0FF3C37
:1059200006E000BF4FF0010C02E000BF4FF0010C99
:105930004DF804CD4FEA410C7FEA6C5C4FEA430C12
:1059400018BF7FEA6C5C1BD001B050EA410C0CBF61
:1059500052EA430C91EA030F02BF90EA020F0020C3
:10596000704710F1000F91EA030F58BF994208BF2A
:1059700090422CBFD8176FEAE37040F001007047E7
:105980004FEA410C7FEA6C5C02D150EA013C07D13E
:105990004FEA430C7FEA6C5CD6D152EA033CD3D089
:1059A0005DF8040B704700BF8446104662468C4683
:1059B0001946634600E000BF01B5FFF7B7FF0028B6
:1059C00048BF10F1000F01BD4DF808EDFFF7F4FFDF
:1059D0000CBF012000205DF808FB00BF4DF808ED6A
:1059E000FFF7EAFF34BF012000205DF808FB00BF8D
:1059F0004DF808EDFFF7E0FF94BF012000205DF8AF
:105A000008FB00BF4DF808EDFFF7CEFF94BF012063
:105A100000205DF808FB00BF4DF808EDFFF7C4FF5C
:105A200034BF012000205DF808FB00BF4FEA410CA5
:105A30007FEA6C5C02D150EA013C0AD14FEA430C88
:105A40007FEA6C5C02D152EA033C02D14FF00000C5
:105A500070474FF0010070474A0011D212F5001252
:105A600011D20DD56FF47873B3EB62520ED44FEAB6
:105A7000C12343F0004343EA505323FA02F0704736
:105A80004FF00000704750EA013002D14FF0FF3074
:105A900070474FF00000704753B94AB9002908BF5A
:105AA00000281CBF4FF0FF314FF0FF3000F0A4B9C9
:105AB000ADF1080C6DE904CE00F03AF8DDF804E031
:105AC000DDE9022304B0704707EE900AF5EEC07AD4
:105AD000F1EE10FA01D400F00BB8F1EE677A08B5D8
