:1000000000800020BD010000AD2C0000692C000024
:10001000692C0000692C0000692C0000692C00008C
:10002000692C0000692C0000692C0000AD2C000038
:10003000AD2C0000692C00000142000005420000C8
:10004000AD2C0000AD2C0000AD2C0000AD2C00004C
:10005000AD2C0000AD2C0000AD2C0000AD2C00003C
:10006000AD2C0000AD2C0000AD2C0000AD2C00002C
:10007000AD2C0000AD2C0000AD2C0000AD2C00001C
:10008000AD2C0000AD2C0000AD2C0000AD2C00000C
:10009000AD2C0000AD2C0000AD2C0000AD2C0000FC
:1000A000AD2C0000AD2C0000AD2C0000AD2C0000EC
:1000B000AD2C0000AD2C0000AD2C0000AD2C0000DC
:1000C000AD2C0000AD2C0000AD2C0000AD2C0000CC
:1000D000AD2C0000AD2C0000AD2C0000AD2C0000BC
:1000E000AD2C0000AD2C0000AD2C0000AD2C0000AC
:1000F000AD2C0000AD2C0000AD2C0000AD2C00009C
:10010000AD2C0000AD2C0000AD2C0000AD2C00008B
:10011000AD2C0000AD2C0000AD2C0000AD2C00007B
:10012000AD2C0000AD2C0000AD2C0000AD2C00006B
:10013000AD2C0000AD2C0000AD2C0000AD2C00005B
:10014000AD2C0000AD2C0000AD2C0000AD2C00004B
:10015000AD2C0000AD2C0000AD2C0000AD2C00003B
:10016000AD2C000031350000AD2C0000AD2C00009E
:10017000AD2C0000AD2C0000AD2C0000AD2C00001B
:10018000AD2C0000AD2C0000AD2C0000AD2C00000B
:10019000AD2C0000AD2C0000AD2C0000AD2C0000FB
:1001A000AD2C0000AD2C0000AD2C0000AD2C0000EB
:1001B000AD2C0000AD2C0000AD2C0000574B4CF2D4
:1001C000205210B5DA814DF62812DA8100BF00BF47
:1001D00002F070FD524B4FF010621A63514A9A635D
:1001E000514ADA63514A136913F4807303D153619E
:1001F0004FF4A85313614E4B9A78110703D59A78A0
:1002000042F008029A704B4B4B482A221A704B4B13
:10021000DA1C121AC11E22F00302994288BF002282
:10022000474902F04DFC474B4748DA1C121AC11EE1
:1002300022F00302994288BF0022002105F04AFB08
:10024000424943484FF4DE7202F03AFC414B424AC5
:10025000802103F8011B9342FBD14FF0E0233C4A7D
:10026000C3F8082D3D4B8A221A70A3F5805324222F
:100270005A70A0221A709A799207FCD59A79D406FE
:10028000FCD4374B9A7902F00C02082AFAD10522E5
:100290001A7143225A719A799006FCD5304A9379A3
:1002A0005906FCD51E4B4FF08171596405219964A4
:1002B00020211170917901F00C010C29FAD1294A01
:1002C0005A604FF0E023284A5A6100229A610722BF
:1002D0001A61264AC3F8202D62B602F0E9FD134BDD
:1002E0005B69DA0705D5224802F0D6FD214B224A88
:1002F000DA61224B1B785B0609D51E4C1E4BE26966
:100300009A4204D11A4802F0C7FD0023E36102F0CB
:10031000D7FC05F037FB02F0CBFBFEE700200540E1
:1003200000800440823F04000100002B00D0034005
:1003300000D0074000E007402087FF1F2C8FFF1FE1
:10034000A46E00004895FF1F308FFF1F00000000C3
:100350000082FF1F00E400E05FE400E00050064080
:1003600000400640C01005003F1901000000202099
:1003700070DC246700E00340A5C3945A00F00740F6
:10038000FFFFFFFFFFFFFFFFFFFFFFFFFFFFFFFF7D
:10039000FFFFFFFFFFFFFFFFFFFFFFFFFFFFFFFF6D
:1003A000FFFFFFFFFFFFFFFFFFFFFFFFFFFFFFFF5D
:1003B000FFFFFFFFFFFFFFFFFFFFFFFFFFFFFFFF4D
:1003C000FFFFFFFFFFFFFFFFFFFFFFFFFFFFFFFF3D
:1003D000FFFFFFFFFFFFFFFFFFFFFFFFFFFFFFFF2D
:1003E000FFFFFFFFFFFFFFFFFFFFFFFFFFFFFFFF1D
:1003F000FFFFFFFFFFFFFFFFFFFFFFFFFFFFFFFF0D
:10040000FFFFFFFFFFFFFFFFFFFFFFFFDEF9FFFF23
:100410000548064B1B1AD90F01EBA301491002D066
:10042000034B03B1184770472C8FFF1F2C8FFF1F02
:100430000000000008B5054B1BB105490548AFF3A6
:100440000080BDE80840FFF7E3BF00BF00000000E8
:10045000308FFF1F9C6E000038B5054CA4F13005AD
:100460000C3C204602F056FAAC42F9D138BD00BF30
:10047000C08FFF1F38B50D4604460021007A02F0F8
:1004800069FD85EAE571207BA1EBE571BDE83840A7
:1004900002F060BD38B50D4604460021007B02F035
:1004A00059FD85EAE571207AA1EBE571BDE8384098
:1004B00002F050BD10B504460021007B02F04AFD59
:1004C000207A0021BDE8104002F044BD1E4BDA6FD7
:1004D000D2E9001309781878537A92F808C01842C4
:1004E00001EA0C0127D0937A03F00303B9B943F072
:1004F00008039908013B91720D2B1BD8DFE803F02C
:100500000B0716071A120B0B121A0716070BD368E4
:10051000013BD3607047D3680133D360704743F029
:100520000403E4E7D368023BD3607047D368023327
:10053000D36070477047937A03F003030029D8D043
:1005400043F00403D5E700BF8090FF1F1E4BD3F894
:100550008020D2E9001309781878537A92F808C0FD
:10056000184201EA0C0127D0937A03F00303B9B9CA
:1005700043F008039908013B91720D2B1BD8DFE86B
:1005800003F00B0716071A120B0B121A0716070BAC
:10059000D368013BD3607047D3680133D3607047A1
:1005A00043F00403E4E7D368023BD3607047D368A9
:1005B0000233D36070477047937A03F00303002936
:1005C000D8D043F00403D5E78090FF1F1E4B1A6874
:1005D000D2E9001309781878537A92F808C01842C3
:1005E00001EA0C0127D0937A03F00303B9B943F071
:1005F00008039908013B91720D2B1BD8DFE803F02B
:100600000B0716071A120B0B121A0716070BD368E3
:10061000013BD3607047D3680133D360704743F028
:100620000403E4E7D368023BD3607047D368023326
:10063000D36070477047937A03F003030029D8D042
:1006400043F00403D5E700BF8090FF1F1E4B5A689C
:10065000D2E9001309781878537A92F808C0184242
:1006600001EA0C0127D0937A03F00303B9B943F0F0
:1006700008039908013B91720D2B1BD8DFE803F0AA
:100680000B0716071A120B0B121A0716070BD36863
:10069000013BD3607047D3680133D360704743F0A8
:1006A0000403E4E7D368023BD3607047D3680233A6
:1006B000D36070477047937A03F003030029D8D0C2
:1006C00043F00403D5E700BF8090FF1F1E4B9A68DC
:1006D000D2E9001309781878537A92F808C01842C2
:1006E00001EA0C0127D0937A03F00303B9B943F070
:1006F00008039908013B91720D2B1BD8DFE803F02A
:100700000B0716071A120B0B121A0716070BD368E2
:10071000013BD3607047D3680133D360704743F027
:100720000403E4E7D368023BD3607047D368023325
:10073000D36070477047937A03F003030029D8D041
:1007400043F00403D5E700BF8090FF1F1E4BD3F892
:100750008420D2E9001309781878537A92F808C0F7
:10076000184201EA0C0127D0937A03F00303B9B9C8
:1007700043F008039908013B91720D2B1BD8DFE869
:1007800003F00B0716071A120B0B121A0716070BAA
:10079000D368013BD3607047D3680133D36070479F
:1007A00043F00403E4E7D368023BD3607047D368A7
:1007B0000233D36070477047937A03F00303002934
:1007C000D8D043F00403D5E78090FF1F1E4BDA6EAC
:1007D000D2E9001309781878537A92F808C01842C1
:1007E00001EA0C0127D0937A03F00303B9B943F06F
:1007F00008039908013B91720D2B1BD8DFE803F029
:100800000B0716071A120B0B121A0716070BD368E1
:10081000013BD3607047D3680133D360704743F026
:100820000403E4E7D368023BD3607047D368023324
:10083000D36070477047937A03F003030029D8D040
:1008400043F00403D5E700BF8090FF1F1E4B1A6FD3
:10085000D2E9001309781878537A92F808C0184240
:1008600001EA0C0127D0937A03F00303B9B943F0EE
:1008700008039908013B91720D2B1BD8DFE803F0A8
:100880000B0716071A120B0B121A0716070BD36861
:10089000013BD3607047D3680133D360704743F0A6
:1008A0000403E4E7D368023BD3607047D3680233A4
:1008B000D36070477047937A03F003030029D8D0C0
:1008C00043F00403D5E700BF8090FF1F1E4B5A6F13
:1008D000D2E9001309781878537A92F808C01842C0
:1008E00001EA0C0127D0937A03F00303B9B943F06E
:1008F00008039908013B91720D2B1BD8DFE803F028
:100900000B0716071A120B0B121A0716070BD368E0
:10091000013BD3607047D3680133D360704743F025
:100920000403E4E7D368023BD3607047D368023323
:10093000D36070477047937A03F003030029D8D03F
:1009400043F00403D5E700BF8090FF1F1E4B9A6F52
:10095000D2E9001309781878537A92F808C018423F
:1009600001EA0C0127D0937A03F00303B9B943F0ED
:1009700008039908013B91720D2B1BD8DFE803F0A7
:100980000B0716071A120B0B121A0716070BD36860
:10099000013BD3607047D3680133D360704743F0A5
:1009A0000403E4E7D368023BD3607047D3680233A3
:1009B000D36070477047937A03F003030029D8D0BF
:1009C00043F00403D5E700BF8090FF1F1E4BDA6899
:1009D000D2E9001309781878537A92F808C01842BF
:1009E00001EA0C0127D0937A03F00303B9B943F06D
:1009F00008039908013B91720D2B1BD8DFE803F027
:100A00000B0716071A120B0B121A0716070BD368DF
:100A1000013BD3607047D3680133D360704743F024
:100A20000403E4E7D368023BD3607047D368023322
:100A3000D36070477047937A03F003030029D8D03E
:100A400043F00403D5E700BF8090FF1F1E4B1A69D7
:100A5000D2E9001309781878537A92F808C018423E
:100A600001EA0C0127D0937A03F00303B9B943F0EC
:100A700008039908013B91720D2B1BD8DFE803F0A6
:100A80000B0716071A120B0B121A0716070BD3685F
:100A9000013BD3607047D3680133D360704743F0A4
:100AA0000403E4E7D368023BD3607047D3680233A2
:100AB000D36070477047937A03F003030029D8D0BE
:100AC00043F00403D5E700BF8090FF1F1E4B5A6917
:100AD000D2E9001309781878537A92F808C01842BE
:100AE00001EA0C0127D0937A03F00303B9B943F06C
:100AF00008039908013B91720D2B1BD8DFE803F026
:100B00000B0716071A120B0B121A0716070BD368DE
:100B1000013BD3607047D3680133D360704743F023
:100B20000403E4E7D368023BD3607047D368023321
:100B3000D36070477047937A03F003030029D8D03D
:100B400043F00403D5E700BF8090FF1F1E4B9A6956
:100B5000D2E9001309781878537A92F808C018423D
:100B600001EA0C0127D0937A03F00303B9B943F0EB
:100B700008039908013B91720D2B1BD8DFE803F0A5
:100B80000B0716071A120B0B121A0716070BD3685E
:100B9000013BD3607047D3680133D360704743F0A3
:100BA0000403E4E7D368023BD3607047D3680233A1
:100BB000D36070477047937A03F003030029D8D0BD
:100BC00043F00403D5E700BF8090FF1F1E4BDA6996
:100BD000D2E9001309781878537A92F808C01842BD
:100BE00001EA0C0127D0937A03F00303B9B943F06B
:100BF00008039908013B91720D2B1BD8DFE803F025
:100C00000B0716071A120B0B121A0716070BD368DD
:100C1000013BD3607047D3680133D360704743F022
:100C20000403E4E7D368023BD3607047D368023320
:100C3000D36070477047937A03F003030029D8D03C
:100C400043F00403D5E700BF8090FF1F1E4B1A6AD4
:100C5000D2E9001309781878537A92F808C018423C
:100C600001EA0C0127D0937A03F00303B9B943F0EA
:100C700008039908013B91720D2B1BD8DFE803F0A4
:100C80000B0716071A120B0B121A0716070BD3685D
:100C9000013BD3607047D3680133D360704743F0A2
:100CA0000403E4E7D368023BD3607047D3680233A0
:100CB000D36070477047937A03F003030029D8D0BC
:100CC00043F00403D5E700BF8090FF1F1E4B5A6A14
:100CD000D2E9001309781878537A92F808C01842BC
:100CE00001EA0C0127D0937A03F00303B9B943F06A
:100CF00008039908013B91720D2B1BD8DFE803F024
:100D00000B0716071A120B0B121A0716070BD368DC
:100D1000013BD3607047D3680133D360704743F021
:100D20000403E4E7D368023BD3607047D36802331F
:100D3000D36070477047937A03F003030029D8D03B
:100D400043F00403D5E700BF8090FF1F1E4B9A6A53
:100D5000D2E9001309781878537A92F808C018423B
:100D600001EA0C0127D0937A03F00303B9B943F0E9
:100D700008039908013B91720D2B1BD8DFE803F0A3
:100D80000B0716071A120B0B121A0716070BD3685C
:100D9000013BD3607047D3680133D360704743F0A1
:100DA0000403E4E7D368023BD3607047D36802339F
:100DB000D36070477047937A03F003030029D8D0BB
:100DC00043F00403D5E700BF8090FF1F1E4BDA6A93
:100DD000D2E9001309781878537A92F808C01842BB
:100DE00001EA0C0127D0937A03F00303B9B943F069
:100DF00008039908013B91720D2B1BD8DFE803F023
:100E00000B0716071A120B0B121A0716070BD368DB
:100E1000013BD3607047D3680133D360704743F020
:100E20000403E4E7D368023BD3607047D36802331E
:100E3000D36070477047937A03F003030029D8D03A
:100E400043F00403D5E700BF8090FF1F1E4B1A6BD1
:100E5000D2E9001309781878537A92F808C018423A
:100E600001EA0C0127D0937A03F00303B9B943F0E8
:100E700008039908013B91720D2B1BD8DFE803F0A2
:100E80000B0716071A120B0B121A0716070BD3685B
:100E9000013BD3607047D3680133D360704743F0A0
:100EA0000403E4E7D368023BD3607047D36802339E
:100EB000D36070477047937A03F003030029D8D0BA
:100EC00043F00403D5E700BF8090FF1F1E4B5A6B11
:100ED000D2E9001309781878537A92F808C01842BA
:100EE00001EA0C0127D0937A03F00303B9B943F068
:100EF00008039908013B91720D2B1BD8DFE803F022
:100F00000B0716071A120B0B121A0716070BD368DA
:100F1000013BD3607047D3680133D360704743F01F
:100F20000403E4E7D368023BD3607047D36802331D
:100F3000D36070477047937A03F003030029D8D039
:100F400043F00403D5E700BF8090FF1F1E4B9A6B50
:100F5000D2E9001309781878537A92F808C0184239
:100F600001EA0C0127D0937A03F00303B9B943F0E7
:100F700008039908013B91720D2B1BD8DFE803F0A1
:100F80000B0716071A120B0B121A0716070BD3685A
:100F9000013BD3607047D3680133D360704743F09F
:100FA0000403E4E7D368023BD3607047D36802339D
:100FB000D36070477047937A03F003030029D8D0B9
:100FC00043F00403D5E700BF8090FF1F1E4BDA6B90
:100FD000D2E9001309781878537A92F808C01842B9
:100FE00001EA0C0127D0937A03F00303B9B943F067
:100FF00008039908013B91720D2B1BD8DFE803F021
:101000000B0716071A120B0B121A0716070BD368D9
:10101000013BD3607047D3680133D360704743F01E
:101020000403E4E7D368023BD3607047D36802331C
:10103000D36070477047937A03F003030029D8D038
:1010400043F00403D5E700BF8090FF1F1E4B1A6CCE
:10105000D2E9001309781878537A92F808C0184238
:1010600001EA0C0127D0937A03F00303B9B943F0E6
:1010700008039908013B91720D2B1BD8DFE803F0A0
:101080000B0716071A120B0B121A0716070BD36859
:10109000013BD3607047D3680133D360704743F09E
:1010A0000403E4E7D368023BD3607047D36802339C
:1010B000D36070477047937A03F003030029D8D0B8
:1010C00043F00403D5E700BF8090FF1F1E4B5A6C0E
:1010D000D2E9001309781878537A92F808C01842B8
:1010E00001EA0C0127D0937A03F00303B9B943F066
:1010F00008039908013B91720D2B1BD8DFE803F020
:101100000B0716071A120B0B121A0716070BD368D8
:10111000013BD3607047D3680133D360704743F01D
:101120000403E4E7D368023BD3607047D36802331B
:10113000D36070477047937A03F003030029D8D037
:1011400043F00403D5E700BF8090FF1F1E4B9A6C4D
:10115000D2E9001309781878537A92F808C0184237
:1011600001EA0C0127D0937A03F00303B9B943F0E5
:1011700008039908013B91720D2B1BD8DFE803F09F
:101180000B0716071A120B0B121A0716070BD36858
:10119000013BD3607047D3680133D360704743F09D
:1011A0000403E4E7D368023BD3607047D36802339B
:1011B000D36070477047937A03F003030029D8D0B7
:1011C00043F00403D5E700BF8090FF1F1E4BDA6C8D
:1011D000D2E9001309781878537A92F808C01842B7
:1011E00001EA0C0127D0937A03F00303B9B943F065
:1011F00008039908013B91720D2B1BD8DFE803F01F
:101200000B0716071A120B0B121A0716070BD368D7
:10121000013BD3607047D3680133D360704743F01C
:101220000403E4E7D368023BD3607047D36802331A
:10123000D36070477047937A03F003030029D8D036
:1012400043F00403D5E700BF8090FF1F1E4B1A6DCB
:10125000D2E9001309781878537A92F808C0184236
:1012600001EA0C0127D0937A03F00303B9B943F0E4
:1012700008039908013B91720D2B1BD8DFE803F09E
:101280000B0716071A120B0B121A0716070BD36857
:10129000013BD3607047D3680133D360704743F09C
:1012A0000403E4E7D368023BD3607047D36802339A
:1012B000D36070477047937A03F003030029D8D0B6
:1012C00043F00403D5E700BF8090FF1F1E4B5A6D0B
:1012D000D2E9001309781878537A92F808C01842B6
:1012E00001EA0C0127D0937A03F00303B9B943F064
:1012F00008039908013B91720D2B1BD8DFE803F01E
:101300000B0716071A120B0B121A0716070BD368D6
:10131000013BD3607047D3680133D360704743F01B
:101320000403E4E7D368023BD3607047D368023319
:10133000D36070477047937A03F003030029D8D035
:1013400043F00403D5E700BF8090FF1F1E4B9A6D4A
:10135000D2E9001309781878537A92F808C0184235
:1013600001EA0C0127D0937A03F00303B9B943F0E3
:1013700008039908013B91720D2B1BD8DFE803F09D
:101380000B0716071A120B0B121A0716070BD36856
:10139000013BD3607047D3680133D360704743F09B
:1013A0000403E4E7D368023BD3607047D368023399
:1013B000D36070477047937A03F003030029D8D0B5
:1013C00043F00403D5E700BF8090FF1F1E4BDA6D8A
:1013D000D2E9001309781878537A92F808C01842B5
:1013E00001EA0C0127D0937A03F00303B9B943F063
:1013F00008039908013B91720D2B1BD8DFE803F01D
:101400000B0716071A120B0B121A0716070BD368D5
:10141000013BD3607047D3680133D360704743F01A
:101420000403E4E7D368023BD3607047D368023318
:10143000D36070477047937A03F003030029D8D034
:1014400043F00403D5E700BF8090FF1F1E4B1A6EC8
:10145000D2E9001309781878537A92F808C0184234
:1014600001EA0C0127D0937A03F00303B9B943F0E2
:1014700008039908013B91720D2B1BD8DFE803F09C
:101480000B0716071A120B0B121A0716070BD36855
:10149000013BD3607047D3680133D360704743F09A
:1014A0000403E4E7D368023BD3607047D368023398
:1014B000D36070477047937A03F003030029D8D0B4
:1014C00043F00403D5E700BF8090FF1F1E4B5A6E08
:1014D000D2E9001309781878537A92F808C01842B4
:1014E00001EA0C0127D0937A03F00303B9B943F062
:1014F00008039908013B91720D2B1BD8DFE803F01C
:101500000B0716071A120B0B121A0716070BD368D4
:10151000013BD3607047D3680133D360704743F019
:101520000403E4E7D368023BD3607047D368023317
:10153000D36070477047937A03F003030029D8D033
:1015400043F00403D5E700BF8090FF1F1E4B9A6E47
:10155000D2E9001309781878537A92F808C0184233
:1015600001EA0C0127D0937A03F00303B9B943F0E1
:1015700008039908013B91720D2B1BD8DFE803F09B
:101580000B0716071A120B0B121A0716070BD36854
:10159000013BD3607047D3680133D360704743F099
:1015A0000403E4E7D368023BD3607047D368023397
:1015B000D36070477047937A03F003030029D8D0B3
:1015C00043F00403D5E700BF8090FF1F70B50446C9
:1015D00005982371144B2360069BA0600D46C0B292
:1015E0000121E360164601F03FFE207B012101F05E
:1015F0003BFE0021284603F013FC38B1207A29462F
:1016000001F0C8FD207B294601F0C4FD304601F001
:10161000B3FD207A002101F09DFC207B002101F028
:1016200099FC204670BD00BFC06C000010B50B4691
:10163000212800F25981DFE810F04E0144013B01FE
:1016400032012901200117010E010501FC00F30000
:10165000EA00E100D800CF00C600BD00B400AB0036
:10166000A2009900900087007E0075006C00630066
:101670005A00510048003F0036002C0022009B4CCD
:101680009B49C4F884300422212001F091FB012001
:1016900010BD964C9749C4F880300422202001F0F8
:1016A00087FB012010BD914C9349E36704221F2062
:1016B00001F07EFB012010BD8C4C9049A3670422F1
:1016C0001E2001F075FB012010BD884C8C4963671A
:1016D00004221D2001F06CFB012010BD834C8949C0
:1016E000236704221C2001F063FB012010BD7F4C06
:1016F0008549E36604221B2001F05AFB012010BD3E
:101700007A4C8249A36604221A2001F051FB012081
:1017100010BD764C7E4963660422192001F048FB17
:10172000012010BD714C7B4923660422182001F072
:101730003FFB012010BD6D4C7749E3650422172063
:1017400001F036FB012010BD684C7449A3650422EA
:10175000162001F02DFB012010BD644C704963651B
:101760000422152001F024FB012010BD5F4C6D49BF
:1017700023650422142001F01BFB012010BD5B4CEB
:101780006949E3640422132001F012FB012010BD1B
:10179000564C6649A3640422122001F009FB012083
:1017A00010BD524C624963640422112001F000FB19
:1017B000012010BD4D4C5F4923640422102001F02C
:1017C000F7FA012010BD494C5B49E36304220F2066
:1017D00001F0EEFA012010BD444C5849A3630422E5
:1017E0000E2001F0E5FA012010BD404C544963631E
:1017F00004220D2001F0DCFA012010BD3B4C5149C0
:10180000236304220C2001F0D3FA012010BD374CD1
:101810004D49E36204220B2001F0CAFA012010BDF9
:10182000324C4A49A36204220A2001F0C1FA012085
:1018300010BD2E4C464963620422092001F0B8FA1B
:10184000012010BD294C434923620422082001F0E5
:10185000AFFA012010BD254C3F49E3610422072067
:1018600001F0A6FA012010BD204C3C49A3610422DE
:10187000062001F09DFA012010BD1C4C384963611F
:101880000422052001F094FA012010BD174C3549BF
:1018900023610422104601F08BFA012010BD134C85
:1018A0003149E3600422032001F082FA012010BDD7
:1018B0000E4C2E49A3600422022001F079FA012087
:1018C00010BD044609482A4943600422012001F062
:1018D0006FFA204610BD054C2649236004220020E3
:1018E00001F066FA012010BD002010BD8090FF1F9E
:1018F0004D0700004D050000CD0400004D0900001B
:10190000CD0800004D080000CD0700004D15000077
:10191000CD1400004D140000CD1300004D13000045
:10192000CD1200004D120000CD1100004D1100003D
:10193000CD1000004D100000CD0F00004D0F000035
:10194000CD0E00004D0E0000CD0D00004D0D00002D
:10195000CD0C00004D0C0000CD0B00004D0B000025
:10196000CD0A00004D0A0000CD090000CD060000A0
:101970004D060000CD050000F8B59DF818C00446DE
:101980000E4615461F46BCF1000F01D016460D4607
:101990003046022101F068FC0221284601F064FC77
:1019A000184B276053F8361053F8352001F50073B3
:1019B000E36002F50073236140F20113A382002368
:1019C000A3614BF68033013BFDD191F8003292F8D0
:1019D000002203F00103D20748BF43F0020304F1E1
:1019E0000C07A37539463046FFF720FE39462077AD
:1019F0002846FFF71BFE227F034613442377204629
:101A0000F8BD00BFEC6C00002DE9F843314D324CBD
:101A10002E68324FDFF8C89040F2EE2802F056FBF5
:101A20002378002B49D03B78DA0746D52B68D9F8C4
:101A300000209B1A0E2B40D902F048FB2378002B84
:101A4000FAD03B78DB07F7D52B68D9F800209B1A32
:101A50000E2BF1D93921234802F032FA224800F046
:101A6000DDFD5521214802F02BFA1F4800F0D6FD7C
:101A700000211F4802F024FA1B4800F0CFFD2F215F
:101A80001C4802F01DFA184800F0C8FD44211A480D
:101A900002F016FA144800F0C1FD1D21174802F0AB
:101AA0000FFA114800F0BAFD1148002102F008FABF
:101AB000BDE8F8430C4800F0B1BD2B6822789B1BB1
:101AC0002AB1B3F5FA6FB7D802F000FBA6E7434599
:101AD000FAD9B1E70891FF1FE891FF1F0C92FF1F91
:101AE0001092FF1F306A00003489FF1F6C6A0000EB
:101AF0001C6C0000C46A0000F46A00003C6B00002B
:101B000010B5382188B09848984C02F0D9F9984817
:101B100000F084FD9749964800F052FD23681A7F33
:101B2000012A40F2D18072B6996962B6904800F0FD
:101B30006DFD0121904802F0C3F990498C4800F0F6
:101B40003FFD63681A7F012A40F2FA8072B69969F4
:101B500062B6874800F05AFD854800F05FFD88496D
:101B6000834800F02DFDA3681A7F012A40F2D5803A
:101B700072B6996962B67E4800F048FD01217E4840
:101B800002F09EF97F497A4800F01AFDE3681A7F57
:101B9000012A40F2AD8072B6996962B674487A4CF7
:101BA00000F034FD724800F039FD0021774802F062
:101BB00087F96F4800F032FD3621754802F080F950
:101BC0006B4800F02BFD6B49694800F0F9FCD4E943
:101BD0000023674800F084FD0121674802F070F996
:101BE0006649634800F0ECFCD4E90223604800F049
:101BF00077FD5F4800F012FD61495D4800F0E0FCB0
:101C0000D4E904235A4800F06BFD01215A4802F040
:101C100057F95C49564800F0D3FCD4E906235448F0
:101C200000F05EFD524800F0F9FC0021574802F038
:101C300047F94F4800F0F2FC3621564802F040F9CF
:101C40004B4800F0EBFC544800F076FC0446034699
:101C50000246019402A800944F4900F0DFFB04F112
:101C6000004223460092019405A84B4900F0D6FBA0
:101C700014214A4802F024F9029802F0F1FC0224EF
:101C800002460B4600943A4800F046FD04214448C1
:101C900002F016F9364800F0C1FC1521414802F067
:101CA0000FF9079802F0DCFC009402460B4630481E
:101CB00000F032FD06213C4802F002F92C4808B041
:101CC000BDE8104000F0AABC72B6DA681869127854
:101CD000197D007811405A7D104200F0EB809A7D0A
:101CE00002F0030209B142F0040242F00802E7E008
:101CF00072B61869DA68197D12780478587D044242
:101D000001EA020100F0AA809A7D02F0030209B103
:101D100042F0040242F00802A6E072B6DA681869DE
:101D20001278197D007811405A7D10426AD09A7D50
:101D300002F0030209B142F0040242F0080267E037
:101D400072B6DA6818691278197D007811405A7DE8
:101D500010422BD09A7D02F0030209B142F0040236
:101D600042F0080228E000BF5C6B00002888FF1FDB
:101D70003489FF1F908FFF1F3C6C00009C8FFF1F5A
:101D8000A88FFF1FB48FFF1F588FFF1F1C6C000010
:101D9000986B0000D06B0000788FFF1F086C00006C
:101DA000206C0000286C0000406C00009A7D02F05E
:101DB000030209B142F004029108013A99750D2A13
:101DC0003FF6C5AE01A151F822F000BF451F00004B
:101DD0003D1F0000651F00003D1F00004F1B00005D
:101DE0005D1F0000451F0000451F00005D1F000033
:101DF0004F1B00003D1F0000651F00003D1F00003D
:101E0000451F00009A7D02F0030209B142F004026E
:101E10009108013A99750D2A3FF6ABAE01A151F830
:101E200022F000BF351F00002D1F0000551F0000CD
:101E30002D1F0000731B00004D1F0000351F000008
:101E4000351F00004D1F0000731B00002D1F0000F8
:101E5000551F00002D1F0000351F00009A7D02F065
:101E6000030209B142F004029108013A99750D2A62
:101E70003FF692AE01A151F822F000BF251F0000ED
:101E80001D1F0000851F00001D1F0000991B000082
:101E90007D1F0000251F0000251F00007D1F000082
:101EA000991B00001D1F0000851F00001D1F000062
:101EB000251F00009A7D02F0030209B142F00402DE
:101EC0009108013A99750D2A3FF62EAE01A151F8FD
:101ED00022F000BF151F00000D1F0000751F00003D
:101EE0000D1F0000291B00006D1F0000151F0000C2
:101EF000151F00006D1F0000291B00000D1F0000B2
:101F0000751F00000D1F0000151F000099690139A1
:101F100099610AE699690131996106E69969013981
:101F200099613AE699690131996136E69969013911
:101F300099611FE69969013199611BE69969013937
:101F4000996105E699690131996101E6996902395A
:101F500099610FE69969023199610BE69969023935
:101F60009961F5E5996902319961F1E5996902395B
:101F70009961DAE5996902319961D6E59969023981
:101F800099610AE699690231996106E62DE9F04FF7
:101F9000684B1B6885B0002B039067DD664B01938F
:101FA000664E674BDFF89CB1DFF89C8102934FF0DF
:101FB00000090921654801F083FF654B09EB4901E0
:101FC00003EB8101584600F0FBFA01F089F9054660
:101FD00001F086F9019A52F8043B0192044672B668
:101FE00000229A6162B65B4FDFF86CA101F078F9CC
:101FF000401BB84214D201F073F9001B40453FD892
:1020000033681A79FF211846002A35D01A686FF014
:10201000FE015268904701F063F9401BB842EAD3D1
:1020200056F8040B03689B68984700214B4801F061
:1020300047FF584600F0F2FA019B53F8043C1A7F20
:10204000012A25D972B6986962B602F0D9FC4449D2
:1020500002F0DEFD02F026FF029BE3E8020102939C
:10206000344B1B6809F101094B45A2DC039B002B93
:102070005BD105B0BDE8F08F1B681B689847B5E7DA
:1020800001F02EF901210446504601F019FFB7E78F
:1020900072B6DA6811781A6910781A7D11405A7D83
:1020A00010422BD09A7D02F00302A9BB42F0080235
:1020B0009108013A986999750D2AC5D801A151F87E
:1020C00022F000BF132100000D2100002521000097
:1020D0000D210000492000001F21000013210000F5
:1020E000132100001F210000492000000D210000E5
:1020F000252100000D210000132100009A7D02F02F
:1021000003020029D4D042F00402D1E701389861DB
:102110009AE70130986197E742F00402C6E7023877
:10212000986191E7023098618EE705B0BDE8F04F05
:10213000FFF7E6BC4888FF1F2888FF1F3888FF1F6D
:10214000588FFF1F3489FF1F3F420F00486C00006B
:10215000908FFF1F80969800686A00001C6C00003A
:1021600056553742F8B5324C2368BFF35B8FDB0717
:102170004CD5304D304F314E01F070FE40B301F080
:1021800031FEC4B22146284600F052FC204601F040
:102190001BFF012001F0C4F80D2CEDD13946284673
:1021A00000F056FC03463146284693B900F050FC37
:1021B00001462348D9B901F083FE224800F02EFAE7
:1021C0001F49284600F0E2FB01F048FE0028D6D166
:1021D000F8BD1B4900F0DAFB02211B4801F070FE3C
:1021E000184800F01BFA0020FFF7D0FEC4E714499E
:1021F000284600F0CBFB0221134801F061FE114894
:1022000000F00CFA0120FFF7C1FEB5E7204600F010
:102210006FFD0028ADD00A49064800F05DFB0B4A6F
:102220000B49044802F0B2F8204600F069FDA0E72F
:10223000488FFF1F4C8FFF1F546C0000606C000024
:102240001C6C00003489FF1F5C6C00002488FF1F99
:1022500015290000F0B585B0002440F68C230F222C
:102260000E2100943A483B4EFFF786FB40F68C2344
:102270000C220B2100943848FFF77EFB40F68C239C
:102280001022112100943548FFF776FB40F68C238D
:102290000A22092100943248FFF76EFB4FF0FF3508
:1022A0000227012301930095234631460297082215
:1022B0002C48FFF78BF90423029303230193009525
:1022C0002346314608222848FFF780F91723029356
:1022D0001623019300952346314608222348FFF731
:1022E00075F9062302930523314601930095234691
:1022F0001F4D20480822FFF769F901951E4A1F4D1E
:102300001F4B20480392394640F226220293009048
:102310001D4B1E4800F048F81D49284600F0DCFA25
:102320001C4905F10C0000F0D7FA1B4905F1180013
:1023300000F0D2FA194905F1240000F0CDFA184A4C
:102340001849204605B0BDE8F04002F01FB800BFB4
:10235000D08FFF1F00409C460090FF1F3090FF1F52
:102360006090FF1FC08FFF1FF08FFF1F2090FF1F87
:10237000000040415090FF1FB81E053F908FFF1F87
:102380009A99993E0000C0419A99593F788FFF1F52
:10239000686C00007C6C0000906C0000A46C000075
:1023A0002488FF1F590400002DE9F0411E46099BB7
:1023B0008360044601700D4608981749DDF81880BF
:1023C000013D174602F070FB012D079D206194BF6F
:1023D0000423022363610021284602F003FDC0B9F3
:1023E0004146284602F01CFD00B1454641462846BC
:1023F00002F00EFC0546384602F002FB0146284674
:1024000002F052FB314602F04FFB60602046BDE80F
:10241000F0810025EAE700BFDB0F49402DE9F04FCE
:102420001F4683B00B78DDF830B0DDF834900193AF
:1024300004460D4648699246002B37D002F0E0FA78
:1024400039460646504602F027FA594602F024FA69
:10245000494602F021FA314602F0DAFBD5F8108045
:10246000344902F0D5FB414602F01EFB51460246BC
:102470003846174602F00EFA019B022B53D15946FB
:10248000019002F009FA494602F004FA314602F0DE
:10249000BFFB284902F0BCFB414602F005FB019A54
:1024A00082465946104602F0F5F91DE002F0A8FAFE
:1024B00039460646504602F0EFF9002102F0ECF9E9
:1024C000314602F0A5FBD5F810801A4902F0A0FBB6
:1024D000414602F0E9FA5146034638461F4602F0EB
:1024E000D9F94FF0000AD14649462760C4F804A044
:1024F00002F0D2F9314602F08BFB0E4902F088FB64
:10250000414602F0D1FA4FF07C510346A8681D46BF
:1025100002F0CAFA0146284602F07AFBA060204683
:1025200003B0BDE8F08F594602F0B4F94FF0000A4D
:10253000DAE700BF000070424068704770B5012ABA
:102540008AB008BF0A22A1B34FF0210E02E05FFA61
:1025500086FE2946B1FBF2F502FB15145FFA84FCF6
:10256000092C0CF1300498BF5FFA84FC0EF12804AA
:1025700088BF0CF1370C6C4488BF5FFA8CFC914229
:102580000EF1FF3604F824CCE1D24BB10EF1FF3E40
:102590005FFA8EFE0EF128036B442D2203F8242CE3
:1025A000036801A95B68CEF12202714498470AB022
:1025B00070BD30228DF825204FF0210EE5E700BFD9
:1025C0002DE9F0418C688AB0DCB1002588460646CA
:1025D0002F462B46212201A9404600F04FFA3368CE
:1025E000202C22465B6828BF202201A930461544D2
:1025F000A41A98470744002CEBD138460AB0BDE82E
:10260000F081274638460AB0BDE8F0810029BABFFC
:1026100049422D2300230A22FFF790BF00B503682B
:1026200083B040F60D22ADF804205B68022201A9B8
:10263000984703B05DF804FB2DE9F04393B09DF893
:1026400068709DF86C90012F45D91C4652EA04032E
:10265000804616463AD0412502E0D5B206460C46E1
:1026600021463A463046002302F004FC5FFA82FC21
:10267000BCF1090F0CF1300394BF5FFA83FC0CF13D
:10268000370C05F1480388BF5FFA8CFC6B44BE42EF
:1026900074F1000405F1FF3203F844CCDDD2B9F146
:1026A000000F07D0013DEDB205F148036B442D2228
:1026B00003F8442CD8F8003001A95B68C5F1420248
:1026C00029444046984713B0BDE8F08330238DF885
:1026D00045304125E3E7002013B0BDE8F08300BF9B
:1026E00010B5B3F1000C82B007DB0A210024CDE95C
:1026F0000014FFF7A1FF02B010BD52424FF00101DC
:102700004FF00A03009301916CEB4C03FFF794FF29
:1027100002B010BDFFFFFFFF2DE9F04F194687B053
:102720000646104614469A4602F07AF89DF8407024
:10273000002840F0A9802AF000455F4B204629463A
:102740004FF0FF3202F06CF848B95B4B2046294647
:102750004FF0FF3202F046F8002800F08E80574B11
:10276000204651464FF0604202F050F800287BD1DD
:10277000534B204651464FF0604202F029F80028A2
:1027800072D1204651460022002302F021F805466E
:10279000002875D1002F7AD00FF21419D9E90089D9
:1027A00048494FF0000B00204B460BF1010B42460D
:1027B00003F02CFF5FFA8BF3BB42F5D302460B46C6
:1027C0002046514601F0EEFD8946804602F03EF873
:1027D0000F2F28BF0F278246019701F01FFF0246E7
:1027E0000B464046494601F0DBFD2B4680468946B4
:1027F0000A2251463046FFF7A1FE2E234D468DF8A2
:1028000008300DF109027B1EDFF8BC904446834678
:1028100052FA83FA02AF4FF0000842464B46204678
:10282000294603F0F3FE0D46044602F00FF8C0B24D
:1028300000F1300307F8013F01F000FF02460B46AC
:102840002046294601F0ACFDBA4504460D46E4D1C8
:10285000019A336801325B68D2B202A930469847C8
:10286000584607B0BDE8F08F336818495B6803220B
:10287000304607B0BDE8F04F184733681449F5E714
:102880000AF1004A012585E733681249EEE70D4B4E
:1028900000222046514601F085FD01F0D7FF2B466E
:1028A00001460A22304607B0BDE8F04FFFF746BEAA
:1028B000000000A09999B93FFFFFEF7FFFFFEF41B4
:1028C000FFFFEFC10000E03F00002440D46C000097
:1028D000D06C0000CC6C0000F8B500260446066001
:1028E0004660866029B108460D4603F089FA07461E
:1028F00008B92046F8BD013002F0A6FC0028F8D047
:10290000C4E900070670A760294603F0E7F92046EE
:10291000F8BD00BF10B50446006802F09DFC2046DB
:1029200010BD00BFF8B50446154632B9036803B1BF
:102930001A700023A3602046F8BD43689A420E46F1
:102940001CD90068511C03F039FA074660B1A3682E
:10295000206065600BB903702768A5603146384672
:1029600003F0BCF92046F8BD206810B102F074FCF9
:10297000276000236360A3602046F8BD0768A56058
:102980003146384603F0AAF9ECE700BF38B50546F2
:102990000C4649B1084603F033FA21460246284660
:1029A000FFF7C0FF284638BDA960284638BD00BFE4
:1029B0002DE9F84304460068A36888420D46164690
:1029C00009D8C218914206D20F1A4FF0010936B940
:1029D0002046BDE8F8834FF00009002EF8D0626869
:1029E00003EB060890450CD908F1010103F0E6F964
:1029F0000028EDD0A368C4E9000813B9037020686B
:102A0000A368B9F1000F08D12946184403F066F90C
:102A1000C4F808802046BDE8F8833246C11918443E
:102A200000F04EF82368002203F80820F0E700BF0A
:102A300010B582B000238DF80410012201A90446CC
:102A40008DF80530FFF7B4FF204602B010BD00BF7F
:102A5000826808B50B463AB161B1006802F0D4FF54
:102A6000B0FA80F0400908BD31B11878B0FA80F0B2
:102A7000400908BD0368F8E7012008BDBAB138B5C0
:102A80000C4621B185689D4202D800230B7038BDE9
:102A9000ED1A02F1FF3C0168654528BF65461944FF
:102AA0002A46204602F098FB0023635538BD704744
:102AB00008B5FEF7A9FFFFF755FB01F007FBFAE7A2
:102AC00001B441EA000313F003036FD1403A41D34C
:102AD00051F8043B40F8043B51F8043B40F8043BF8
:102AE00051F8043B40F8043B51F8043B40F8043BE8
:102AF00051F8043B40F8043B51F8043B40F8043BD8
:102B000051F8043B40F8043B51F8043B40F8043BC7
:102B100051F8043B40F8043B51F8043B40F8043BB7
:102B200051F8043B40F8043B51F8043B40F8043BA7
:102B300051F8043B40F8043B51F8043B40F8043B97
:102B400051F8043B40F8043B51F8043B40F8043B87
:102B5000403ABDD2303211D351F8043B40F8043B27
:102B600051F8043B40F8043B51F8043B40F8043B67
:102B700051F8043B40F8043B103AEDD20C3205D337
:102B800051F8043B40F8043B043AF9D204320AD02D
:102B9000D2071CBF11F8013B00F8013B03D30B78AF
:102BA00003704B78437001BC704700BF0C2A4AD3B6
:102BB00010F0030311D0C3F10403D21ADB071CBFCA
:102BC00011F8013B00F8013B07D311F8013B00F875
:102BD000013B11F8013B00F8013B11F003033FF406
:102BE00075AF30B4043AC91AC3F1040C51F8044B60
:102BF000022B19D0032B0BD0240A51F8043B1D06DD
:102C000044EA050440F8044B1C46043AF4D216E0AA
:102C1000240E51F8043B1D0244EA050440F8044B1D
:102C20001C46043AF4D20AE0240C51F8043B1D047B
:102C300044EA050440F8044B1C46043AF4D204323A
:102C4000B1EB0C0130BC043AA0D3013A11F8013BBE
:102C500000F8013BF9D20B7803704B7843708B7806
:102C6000837001BC704700BF08B50F4C636B5803FD
:102C70000DD4636B59050FD4636B1A0511D4636BC4
:102C8000DB04F3D500F012F8636B5803F1D500F0C4
:102C90004FFC636B5905EFD500F008F8636B1A051C
:102CA000EDD500F003F8EAE70080044008B5FFF72F
:102CB000DBFF00BF014B10221A8070470020054047
:102CC000704700BF094A08B50346106833B169462A
:102CD0000344A1F580518B4201D2136008BD02F07C
:102CE000ADFA0C2303604FF0FF3008BD4C88FF1F86
:102CF000D0E9003213430CBF01200020704700BF11
:102D000001220023C0E90023704700BF01F1FF3C0E
:102D100070B56546002401E070460134B0FBF2FE58
:102D200002FB1E03092B03F130068ABF3733F3B2CF
:102D3000DBB2904205F8013FEED2631C0022CA5478
:102D4000C8187CB162461CF8015F10F801ED8CF8E0
:102D500000E0A1EB0C030232013B521A23449A42D9
:102D60000570EFDB084670BD704700BF10B40F4B15
:102D700053F8302092F880422CB1012391B182F8AF
:102D8000803010BC704703EBC0035B681A6821B940
:102D900022F0020210BC1A60704742F0030210BC1D
:102DA0001A60704782F8003110BC7047EC6C00006C
:102DB000212835D8042A33D830B42A4B2A4D53F869
:102DC000223005EBC0021B045468226812F4E06252
:102DD00039D0264A2648C2F89C012648C2F8A001EC
:102DE0002548C2F8A4012548C2F8A8012448C2F821
:102DF000AC0104F14042A2F592207C2811D8214870
:102E000072B6226822F4702222601343C4F3840253
:102E100043F0807340F82210236062B630BC7047E4
:102E20007047A2F594207C2815D9A2F596207C281D
:102E300013D9A2F598207C2811D9A2F59A227C2AD0
:102E4000ECD81148DCE755F8300080F880224FF4C8
:102E500080722260BDE70D48D2E70D48D0E70D48EB
:102E6000CEE700BFD86C0000EC6C00000082FF1FB2
:102E7000F187FF1FBD87FF1F8987FF1F5587FF1F32
:102E80002187FF1F5488FF1F2C89FF1F8C88FF1F7D
:102E9000DC88FF1F0C89FF1F034B002210215A61A1
:102EA0005A6018605961704700D00340704700BFF6
:102EB000F0B54FF0E0244FF400054FF0807CC4F8EB
:102EC0000851C4F808C14FF0007CC4F808C11D4A7D
:102ED0001D481E494FF0806CC4F808C12823002704
:102EE00048F6FF7609254FF0006CC4F808C183B09E
:102EF00057609660D3605361D3615362D36253636A
:102F0000D3635364156047608660C36043610560A6
:102F10004F608E60CB604B610D6001F07BF9FFF775
:102F2000C5FF0B4C23680093009B132BFAD900F0CC
:102F3000B9FE23680193019BB3F5967FF9D303B0E3
:102F4000F0BD00BF008003400090034000800B40B4
:102F50000891FF1F28287F4B36D000291B783FDDC2
:102F6000012202FA03FC614510B554D2C21E012AA7
:102F700070D9202867D0192865D0774A926802FB5B
:102F8000011222FA03F3421F1B2A7DD8DFE812F058
:102F9000C600BF007C007C00B800B1007C007C0053
:102FA0007C007C007C007C007C007C007C00AA0013
:102FB000A3009C0095007C00CD007C007C007C0080
:102FC0007C007C007C00D40018780B2895BFC0F1F1
:102FD0000C000C3801FA00F041FA00F001F07EB963
:102FE000212817D85D4B53F8302092F8801203EB5C
:102FF000C00300293CD001215B6882F80011012048
:103000004FF4A27182F8800219601A6822F020023F
:103010001A6070477047212814D8504B53F830106D
:1030200091F8804203EBC00344B35B6881F88020D1
:103030004FF4A272012081F880021A601A6822F00F
:1030400020021A6010BD464A926802FB011222FA61
:1030500003F398E7434CA268042802FB011222FA0A
:1030600003F270D1404BA2614FF45171596310BD0E
:103070005B68196821F002011960C0E75B681A6893
:1030800042F003021A60D3E72128DBD87F29D4BF9E
:1030900000210121FFF76AFE304B03EBC00253F819
:1030A0003010536801244FF4A27281F880421A60F4
:1030B0001A6822F020021A6010BD27482B4A83614B
:1030C00040F24441916010BD2348284A036140F218
:1030D0004441516010BD2048254A036440F24441F8
:1030E000916110BD1C48224A836340F24441516102
:1030F00010BD19481D4A836240F24441116110BD60
:1031000015481A4A036240F24441D16010BD12488A
:10311000174A036340F24441116110BD0E48144A3E
:10312000836440F24441D16110BD0D48114A83616E
:103130004FF45171D16410BD09480E4A03614FF438
:103140005171916410BD084B22614FF451711963A4
:1031500010BD00BF5088FF1F00800340EC6C0000D2
:1031600000800B40009003400090044000B00440F9
:1031700000C0044000A004400346102B28BF1023C9
:10318000034A012B38BF012310781370704700BF2A
:103190005088FF1F2DE9F0470E4680462C493046E7
:1031A00001F020FE2B4B002847F6122712BF4FF0EC
:1031B000020A4FF0010A1F4600244FF05E5927FA19
:1031C00004F001F019FC4946054601F06DFC01468A
:1031D000304601F01BFE30B90134072CEFD1F8095D
:1031E00001F00AFC05463146284601F011FD4FF07A
:1031F0007C5101F04FFB01F01DFE4FF6FF7398422A
:1032000028BF1846A8F10303012B11D9A8F105081E
:103210005FFA88F8B8F11B0F08D80F4A012303FAA8
:1032200008F31A4010D113F0016F0BD1BDE8F087FD
:103230000A4B002244EACA041A605A6098601C6073
:10324000BDE8F087064BF5E7064B0022F2E700BF2A
:10325000405489400051250233800700009003400C
:1032600000800B4000800340212820D81B4A02EB3D
:10327000C00301295B680FD004291DD052F830002B
:10328000002280F8802299B1022922D003290DD191
:103290004FF481721A60704752F830004FF4A272F6
:1032A00080F880121A601A6822F020021A607047B3
:1032B0004FF480721A60704752F830104FF4A272C7
:1032C000012081F880021A601A6842F020021A6018
:1032D000704740F203121A60704700BFEC6C0000A8
:1032E00072B60D494FF0E02293690868D2F8042DB8
:1032F00062B6520102D5322B88BF0130074AC3F5AE
:103300008C334FF47A7103F23F13A2FB032301FBCA
:1033100000F000EB131070470891FF1F398EE3385F
:103320002DE9F843044672B6204F4FF0E02293692E
:103330003D68D2F8042D62B6520102D5322B88BF07
:1033400001350CB9BDE8F883DFF86490DFF86480DC
:10335000A9EB0303A8FB03234FF47A7202FB05F5E4
:1033600005EB13154FF0E02672B6B1693A68D6F84E
:1033700004CD62B6A9EB0103A8FB03031CF0806F28
:10338000C5EB13134FF47A7002D0322988BF013293
:1033900000FB0233B3F57A7F04D3013CD2D005F5AC
:1033A0007A75E1E700F092FEDEE700BF0891FF1FAB
:1033B0003F190100398EE338431E032B17D872B62C
:1033C0000C4951F8230080B110B40B4CB0F800C088
:1033D00034F81320A2EB0C02D0F804C041F823C04B
:1033E00024F8132062B610BC704762B67047002004
:1033F000704700BF9C91FF1FEC91FF1F013803280D
:103400000BD872B6074B53F8203043B100205B68ED
:103410000130002BFBD162B6704700207047184680
:10342000F9E700BFC491FF1F10B472B6194A1A4CD5
:10343000042312F8011B090743F0010C05D554F8C9
:10344000331061B154F83C10B9B10433142BF0D1EE
:1034500062B6124B00221A7010BC00F09BBC0F49E0
:1034600004EBC302083050600A780D4844F833007A
:10347000013A0A7062B610BC7047084A094904EB69
:10348000CC0308305860137844F83C10013B1370AB
:1034900062B6F0E77C6E00000080FF1FF491FF1F12
:1034A00088004000C8004000421E032A0ED81C4B72
:1034B000400140F0100010B4034472B6194CA05CF7
:1034C00003281CD8DFE800F0131503187047052007
:1034D000A05413F0080F088814BFC82288220831AE
:1034E00042EA004259601A6062B610BC704703207D
:1034F000EEE708330220EBE708330420E8E70A4B45
:1035000053F8220038B1094B53F82200416043F8C8
:10351000221062B6E9E743F82210044BF7E700BF38
:103520000080FF1FE491FF1FC491FF1FD491FF1F74
:103530002DE9F04FDFF8CCA2DFF8CCB285B03DE04A
:10354000B24D9E0805EBC607013A796813F00803EF
:10355000D4B2A1F1080040F0B88055F836204FEA07
:10356000124C120C21F808CC00F0A78021F8063C80
:1035700041F8043CA64B53F82420002A00F00182B5
:10358000A44B53F82420506043F82400A24B33F896
:103590001420944423F814C000F0DCFB002800F051
:1035A000E98117F0080F9D4B00F1080018BF5B463A
:1035B000786045F8363008238AF880309AF88030F1
:1035C0005907DCB21BD5964B1B78ABB195490A78ED
:1035D00002F0FF032AB1013BDBB20B70002B00F0BD
:1035E000468391490A7802F0FF032AB1013BDBB21E
:1035F0000B70002B00F0EB8104238AF8803014F06C
:10360000080200F0CC819AF89020D3B2120997D129
:10361000DFF8F8919B0809EBC30459F8330064689C
:10362000C0F3830009287CD00FD80138012808D8BE
:103630007E4A158842F22100854200F0FB8149F85C
:1036400033B001238AF89430B5E70D28F9D1D4E9D5
:103650000007774D49F833B0744E764CC9F8102006
:1036600083B240F2816CC9F818202A6063454FF09C
:103670000102C6E90007227000F2FF80B3F5D06FA7
:1036800080F0CB82B3F5817F00F0268240F2DE80AD
:1036900040F2023293427BD107F07F07042F00F201
:1036A0000881020C40F00581634911F8273043F08E
:1036B000020301F82730134670E017F0080F574B4C
:1036C00018BF5B4645F8363075E700F063FB5B4991
:1036D0005B4A51F82430002B00F05781586841F8BC
:1036E0002400115D03F108007860032905D8DFE8A4
:1036F00001F0120F1502042111551A8817F0080F56
:1037000014BFC823882343EA024345F8363052E702
:1037100002211155F1E703211155EEE7052111555D
:10372000EBE7434D2A683AB34649424C0F88464876
:1037300094F800E00678402F3B4628BF4023BEF1B6
:10374000000F8EF0010E84F800E046F0020486F0CF
:103750000106067009EBC400426014BFC82088202F
:1037600040EA03401A44FB1A9BB249F834000B802C
:10377000002B00F036812A602C4B1A88B2F5A06F1E
:103780007FF45FAF9A788AF8982000225A7058E741
:10379000B3F5A06F40F08D8000221346B6F806C046
:1037A0002948944528BF944667460278402F28BF91
:1037B000402742F0020E3E0409EBCE0846F0C80650
:1037C000C8F8043049F83E6000263B442670BCEB44
:1037D000070782F00106067040F01181BCF13F0F2F
:1037E0004FF0010509D946F00206027009EBC60246
:1037F00025705360882349F8363001238AF89430C5
:103800001FE700BF00200740C80040000080FF1FE6
:103810009C91FF1FAC91FF1FEC91FF1F880040009F
:10382000E891FF1FE991FF1F1492FF1FBC91FF1F3A
:103830009091FF1F8D91FF1FC0200740C491FF1F73
:10384000E491FF1F8E91FF1F8C91FF1F802B00F0D2
:103850008B81822B2DD107F07F07042F29D8A74A0F
:1038600000231380A64B13F827309F0740F1FC81FB
:1038700001231370A14B022290E742F2210C634511
:10388000BBD01DD942F2212293420DD1BFB2002FED
:1038900082D19C4B1A689C4B1A609C4BC0F307402A
:1038A00000221870134679E742F2213293423FF426
:1038B00073AF0F238AF8C03001238AF89430C0E632
:1038C000B3F5086F00F04A81B3F5106FF1D1904B5A
:1038D000C0F307400425187059F835301A0606D48D
:1038E0000135142D0CD059F835301A06F8D509EBEE
:1038F000C50301355868083800F04CFA142DF2D190
:10390000844A854B0292854A0192854E854ADFF8AA
:1039100018820394009200251C4656F8047B2FB1B0
:1039200038467F6800F036FA002FF9D1009BD8F8AE
:10393000007043F8045B46F8045C00932FB13846EE
:103940007F6800F027FA002FF9D1029B48F8045B4A
:1039500043F8045B0293019B23F8025B01932378F5
:10396000023B032B00F20981DFE813F03F01040161
:103970003F0104016D4A45F8360013780133137096
:1039800019E643F82400674BFEE5115D022926D0B5
:103990007FF611AE03291DD1012313550BE6E00775
:1039A0006ED4210621D4A20708D5614B93F8882054
:1039B0000221D2B283F8882083F88010E30603D571
:1039C0005B4B102283F8802005B0BDE8F08F00F03B
:1039D00059FB11E617F0080F14BF032302231355F8
:1039E000E9E53F2F98BF0022C5E6514B80220D210B
:1039F00083F8C01083F88020A207DFD5D5E746F012
:103A000002060270402F09EBC6003A4628BF40224A
:103A100043601004134440F088000121BA1A49F8A9
:103A20003600217055D02B60424B1A8001238AF852
:103A3000943006E692885AB93F4AE51D14F8011BF6
:103A400002F8011FAC42F9D13C4A1268862A3CD0E8
:103A50003B4C3C4825780278002D85F00105257007
:103A600042F0020482F00102027009EBC4024FF03E
:103A70000000506014BFC822882249F83420DEE5D7
:103A80002B4B30483049314C022583F8945002705A
:103A90002F480C602F4D48608C600D24CD60FF20B6
:103AA0000A618A6183F8C04001219F2483F888005D
:103AB00083F8800083F8982083F88C0083F8844092
:103AC00083F8941005B0BDE8F08F234A0F201070E2
:103AD000BEE73F2FA7D890E607F07F07042F3FF6F9
:103AE000E8AE000C7FF4E5AE054A12F8273023F06B
:103AF000020302F82730002213464FE69491FF1F7D
:103B0000C02007400891FF1F1092FF1F0C92FF1F5B
:103B1000E891FF1FD491FF1FE491FF1FEC91FF1F5D
:103B20009C91FF1FAC91FF1FC491FF1FF491FF1FD9
:103B3000002007408E91FF1F0392FF1F0492FF1F7A
:103B40008D91FF1F8C91FF1F0080FF1F8800400098
:103B50000C91FF1F4C91FF1FE991FF1F484B4949F2
:103B60001B780B700B4619E6464A00231380454B21
:103B7000022213E64FF001032370434BB34204F1DA
:103B800001047FF4CAAE414E039CDFF80481414F2B
:103B900000233370042518F8013B3F4AAB541B0740
:103BA00025D445F0020145F0030204350023142D0D
:103BB00049F8313049F83230EDD1384F25783A782C
:103BC00042F0020009EBC00C85F00106CCF804308D
:103BD000002D4DD1882382F0010226703A7049F8F9
:103BE000303001238AF894302BE52570C5E700F0CA
:103BF000B1F8002832D009EBC5030830586049F805
:103C0000357000F0A7F808B345F0010309EBC302D3
:103C10000830506049F833B0C3E7214A5368002B9D
:103C20003FF447AE000CBFB204E013690C32002B26
:103C30003FF43FAE11888142F7D15188B942F4D1A7
:103C4000000A03280CBF1A781289A7E533780133DC
:103C5000337045F0010349F83300A2E7337849F89F
:103C6000350001333370CCE7064B022296E500BEE7
:103C70002670C82382F001063E7049F83030BCE55A
:103C8000E891FF1F9491FF1FAC91FF1FF491FF1F5C
:103C90007C6E000088004000C02007408C91FF1F10
:103CA000286E000070B500F039FB00231A4A19464F
:103CB00042F8331002EBC3000133142B4160F7D1FB
:103CC000164C174B606B174D40F480206063C2F3B5
:103CD000072483F89C40144CFF204FF0010CC2F3E2
:103CE0000746120E83F8B0604FF0E02E83F8B42040
:103CF00083F8800083F88800187483F894C02170DA
:103D000083F884C0702385F849304FF40072102383
:103D1000CEF80821237270BD0080FF1F0080044090
:103D20000020074000E400E00021074000F0ACB8AC
:103D300000F07CB800F056B800F090B800F076B90A
:103D400000F050B90846114600F0BAB8084600F035
:103D50003BB900BF72B60D490B68B3FA83F00B286C
:103D600010DC4FF00042C24023EA02030B6062B64F
:103D7000074A00EBC000C10002EBC0000023535013
:103D80004360704762B60020704700BF4489FF1F40
:103D9000BC83FF1F0E4BC31AB3F5587F10D20D4AD8
:103DA000127872B972B60C4A0C49A2FB0323086858
:103DB0004FF000421B0922FA03F303430B6062B683
:103DC0007047074A1278002AECD0FFF72DBB00BFDE
:103DD000BC83FF1FF491FF1F398EE3384489FF1F16
:103DE000E891FF1F38B50F4C206878B143880288EE
:103DF000C11801339A420D7A02D94380284638BD52
:103E0000FFF7C8FF00232360284638BD064B1B7808
:103E10002BB10320FFF7D0FA20600028E6D14FF045
:103E2000FF35EBE7F891FF1FE891FF1F10B5094C34
:103E3000206818B143881844007A10BD064B1B78DF
:103E40002BB10320FFF7B8FA20600028F2D14FF021
:103E5000FF3010BDF891FF1FE891FF1F084B094A82
:103E60001B6810B594881BB11A885B88D31A1C4450
:103E70000CB1204610BD00F029F9204610BD00BF4E
:103E8000F891FF1FEC91FF1F0B4B1B789BB110B5F6
:103E90000A4C206848B1FFF77DFF00230320236010
:103EA000FFF78AFA30B1FFF775FF0320FFF784FAB6
:103EB0000028F8D110BD7047E891FF1FF891FF1F4F
:103EC0002DE9F04FDFF8EC9083B0012289F8002053
:103ED000019179B3384FDFF8E480019D384EDFF867
:103EE000E4A083463968A1B3B1F802E0CEF1400CFA
:103EF000AC4528BFAC460EEB0C040022A4B23270D5
:103F0000A5EB0C054C8001F10802BCF1000F0AD0B2
:103F10000EF1FF3E7244DC441BF8014B02F8014FE6
:103F2000DC45F9D14C883F2C0BD805228AF80020BB
:103F3000002DD7D10198002389F8003003B0BDE8E7
:103F4000F08F40220A800420FFF7AEFA00223A6088
:103F5000EBE798F800202AB348F6014408E0013C5A
:103F600019D03278BAB900F0B1F898F80020CAB187
:103F70000420FFF743FA0728F1D84FF0010389F82E
:103F80000030FFF7E7FE014638600028ACD1013C65
:103F900089F80000E5D101234FF0FF30337003B002
:103FA000BDE8F08F00234FF0FF3089F8003003B0F8
:103FB000BDE8F08FFD91FF1F0092FF1FE891FF1FEA
:103FC000FC91FF1F1492FF1F00B583B0034601212F
:103FD0000DF107008DF80730FFF772FF03B05DF8B1
:103FE00004FB00BF38B50E4D0E4C2868012323702A
:103FF00028B140880023C0F14000237038BD0A4B2F
:104000001B7813B90020207038BD0420FFF7F6F9A3
:104010000728F7D8FFF79EFE28600028E9D1F1E7CE
:104020000092FF1FFD91FF1FE891FF1FF8B5114B94
:104030001B788BB1104E114D346801272F7064B17D
:104040000F4B00271F706388238021460420FFF751
:104050002BFA376000232B70F8BDFFF77BFE084B6F
:10406000014620B104201C70FFF71EFAF2E71F7012
:10407000F0E700BFE891FF1F0092FF1FFD91FF1FB7
:104080001492FF1F38B50E4B1B7853B90D4C2168A5
:1040900041B103F0FF054B880B800420FFF704FAC1
:1040A000256038BDFFF756FE014620B1BDE8384017
:1040B0000420FFF7F9B9044B01221A7038BD00BF84
:1040C000FD91FF1F0092FF1F1492FF1F2DE9F8437F
:1040D000324E337863B1324F3A784AB90122D90768
:1040E0003A7043D49A0726D400225B073A7001D471
:1040F000BDE8F8832B4B1A68002AF9D0EFF305824C
:10410000002AF5D1EFF3108572B6186800283AD06E
:10411000254C2178002936D142691A600123237089
:10412000002A37D0916105B962B6002583684577CA
:1041300098472570DCE7DFF8748098F80020002AA3
:10414000D2D00025DFF868902B4659F82340236829
:1041500020461B690135984708B12369984798F8AC
:104160000020EBB29A42F0D83378BDE7FFF776FE35
:1041700068B9104B1B780BB93378B3E7337803F089
:10418000FE033370AEE7002DB2D162B6B0E700F0A7
:10419000C3F8EEE7084B1A60C5E700BF4889FF1F68
:1041A0001592FF1F1892FF1F2492FF1F3892FF1FC6
:1041B0002C92FF1F246E00002892FF1F70B5EFF3B2
:1041C000108272B60C4C206880B10C4E00254369F9
:1041D000236073B19D6102B962B6836845779847E1
:1041E000EFF3108272B620680028F0D102B962B6EF
:1041F00070BD3360EFE700BF2092FF1F1C92FF1FCE
:10420000FFF7DCBF024A136801331360704700BF39
:104210000891FF1F2A4B2B4A6020E121187059702A
:1042200013782948082B34D00A2B20D00C2B274B8D
:104230000CBF15213D2112228160C2609960DA60B5
:10424000234B21491B78214ACBB101230B62136216
:10425000204B1D491B781D4A012B13D9042B1BD859
:1042600084234B6253621C4B01221A707047174B18
:10427000192113228160C2609960DA60E0E70B6265
:104280001362E5E780234B625362134B01221A70DD
:1042900070470E4B0121ECE7082B06D885234B62B3
:1042A00053620D4B01221A707047102B94BF862366
:1042B00087234B625362084B01221A70704700BF7C
:1042C000004007404989FF1F00B0034000B00B4089
:1042D0003992FF1F4A89FF1F3A92FF1F0B4A0C4970
:1042E000D36A43F48053D3620B784BB1094B8022DD
:1042F00083F82120074B80F30C0000B21880704730
:10430000044BC02283F82120F4E700BF0080044062
:104310003992FF1F00C00C40704700BF10B584B039
:1043200072B6174A702441200F2180231470D07177
:104330009171137013781B06FCD5906862B6114B0F
:10434000114C984238BF00EB800001A938BF4000F3
:104350000A22FEF7DBFC01A92046002311F8012BFD
:1043600001333AB10A2B20F8022FF7D1162323701C
:1043700004B010BD5B00DBB2237004B010BD00BF01
:104380000000024080969800D889FF1F0346084627
:10439000194601F0F1BA00BF81F0004102E000BF10
:1043A00083F0004330B54FEA41044FEA430594EAF5
:1043B000050F08BF90EA020F1FBF54EA000C55EA30
:1043C000020C7FEA645C7FEA655C00F0E2804FEA01
:1043D0005454D4EB5555B8BF6D420CDD2C4480EAE3
:1043E000020281EA030382EA000083EA010180EA13
:1043F000020281EA0303362D88BF30BD11F0004F61
:104400004FEA01314FF4801C4CEA113102D0404296
:1044100061EB410113F0004F4FEA03334CEA1333D1
:1044200002D0524263EB430394EA050F00F0A780E9
:10443000A4F10104D5F1200E0DDB02FA0EFC22FAE4
:1044400005F2801841F1000103FA0EF2801843FAD8
:1044500005F359410EE0A5F120050EF1200E012AC9
:1044600003FA0EFC28BF4CF0020C43FA05F3C01807
:1044700051EBE37101F0004507D54FF0000EDCF180
:10448000000C7EEB00006EEB0101B1F5801F1BD329
:10449000B1F5001F0CD349085FEA30004FEA3C0C2D
:1044A00004F101044FEA445212F5800F80F09A8023
:1044B000BCF1004F08BF5FEA500C50F1000041EB27
:1044C000045141EA050130BD5FEA4C0C404141EB2B
:1044D0000101013C28BFB1F5801FE9D291F0000F26
:1044E00004BF01460020B1FA81F308BF2033A3F1D5
:1044F0000B03B3F120020CDA0C3208DD02F1140CCC
:10450000C2F10C0201FA0CF021FA02F10CE002F106
:104510001402D8BFC2F1200C01FA02F120FA0CFCFF
:10452000DCBF41EA0C019040E41AA2BF01EB045148
:10453000294330BD6FEA04041F3C1CDA0C340EDC46
:1045400004F11404C4F1200220FA04F001FA02F389
:1045500040EA030021FA04F345EA030130BDC4F147
:104560000C04C4F1200220FA02F001FA04F340EA3C
:104570000300294630BD21FA04F0294630BD94F0ED
:10458000000F83F4801306BF81F480110134013DD4
:104590004EE77FEA645C18BF7FEA655C29D094EA45
:1045A000050F08BF90EA020F05D054EA000C04BFC3
:1045B0001946104630BD91EA030F1EBF00210020AE
:1045C00030BD5FEA545C05D14000494128BF41F04D
:1045D000004130BD14F580043CBF01F5801130BDB1
:1045E00001F0004545F0FE4141F470014FF000003C
:1045F00030BD7FEA645C1ABF194610467FEA655CED
:104600001CBF0B46024650EA013406BF52EA03358E
:1046100091EA030F41F4002130BD00BF90F0000F7C
:1046200004BF0021704730B54FF4806404F13204B8
:104630004FF000054FF0000150E700BF90F0000F71
:1046400004BF0021704730B54FF4806404F1320498
:1046500010F0004548BF40424FF000013EE700BF68
:1046600042004FEAE2014FEA31014FEA02701FBFF8
:1046700012F07F4393F07F4F81F06051704732F02A
:104680007F4208BF704793F07F4F04BF41F4002181
:10469000704730B54FF4607401F0004521F00041DF
:1046A0001CE700BF50EA010208BF704730B54FF069
:1046B00000050AE050EA010208BF704730B511F06A
:1046C000004502D5404261EB41014FF4806404F1A2
:1046D00032045FEA915C3FF4D8AE4FF003025FEA28
:1046E000DC0C18BF03325FEADC0C18BF033202EBAC
:1046F000DC02C2F1200300FA03FC20FA02F001FA06
:1047000003FE40EA0E0021FA02F11444BDE600BFA8
:104710004FF0FF3C06E000BF4FF0010C02E000BF8D
:104720004FF0010C4DF804CD4FEA410C7FEA6C5C70
:104730004FEA430C18BF7FEA6C5C1BD001B050EA13
:10474000410C0CBF52EA430C91EA030F02BF90EAFE
:10475000020F0020704710F1000F91EA030F58BFBD
:10476000994208BF90422CBFD8176FEAE37040F01F
:10477000010070474FEA410C7FEA6C5C02D150EABD
:10478000013C07D14FEA430C7FEA6C5CD6D152EA78
:10479000033CD3D05DF8040B704700BF844610463D
:1047A00062468C461946634600E000BF01B5FFF73C
:1047B000B7FF002848BF10F1000F01BD4DF808ED0C
:1047C000FFF7F4FF0CBF012000205DF808FB00BFDD
:1047D0004DF808EDFFF7EAFF34BF012000205DF837
:1047E00008FB00BF4DF808EDFFF7E0FF94BF012084
:1047F00000205DF808FB00BF4DF808EDFFF7CEFF85
:1048000094BF012000205DF808FB00BF4DF808EDC3
:10481000FFF7C4FF34BF012000205DF808FB00BF94
:104820004FEA410C7FEA6C5C02D150EA013C0AD1AC
:104830004FEA430C7FEA6C5C02D152EA033C02D19E
:104840004FF0000070474FF0010070474A0011D24E
:1048500012F5001211D20DD56FF47873B3EB6252DA
:104860000ED44FEAC12343F0004343EA505323FAE6
:1048700002F070474FF00000704750EA013002D15B
:104880004FF0FF3070474FF00000704780F000405D
:1048900002E000BF81F0004142001FBF5FEA410318
:1048A00092EA030F7FEA226C7FEA236C6AD04FEA18
:1048B0001262D2EB1363C1BFD2184140484041405D
:1048C000B8BF5B42192B88BF704710F0004F40F40F
:1048D000000020F07F4018BF404211F0004F41F42B
:1048E000000121F07F4118BF494292EA030F3FD0F7
:1048F000A2F1010241FA03FC10EB0C00C3F120030A
:1049000001FA03F100F0004302D5494260EB400098
:10491000B0F5000F13D3B0F1807F06D340084FEA03
:10492000310102F10102FE2A51D2B1F1004F40EBF8
:10493000C25008BF20F0010040EA03007047490060
:1049400040EB0000013A28BFB0F5000FEDD2B0FAFD
:1049500080FCACF1080CB2EB0C0200FA0CF0AABF20
:1049600000EBC25052421843BCBFD04018437047BE
:1049700092F0000F81F4000106BF80F400000132C4
:10498000013BB5E74FEA41037FEA226C18BF7FEA9B
:10499000236C21D092EA030F04D092F0000F08BFDD
:1049A0000846704790EA010F1CBF0020704712F0C4
:1049B0007F4F04D1400028BF40F00040704712F103
:1049C00000723CBF00F50000704700F0004343F068
:1049D000FE4040F4000070477FEA226216BF08469E
:1049E0007FEA23630146420206BF5FEA412390EA61
:1049F000010F40F4800070474FF0000304E000BF57
:104A000010F0004348BF40425FEA000C08BF704707
:104A100043F0964301464FF000001CE050EA0102CB
:104A200008BF70474FF000030AE000BF50EA0102E0
:104A300008BF704711F0004302D5404261EB4101CD
:104A40005FEA010C02BF84460146002043F0B643F2
:104A500008BFA3F18053A3F50003BCFA8CF2083A17
:104A6000A3EBC25310DB01FA02FC634400FA02FC20
:104A7000C2F12002BCF1004F20FA02F243EB020027
:104A800008BF20F00100704702F1200201FA02FC89
:104A9000C2F1200250EA4C0021FA02F243EB02007C
:104AA00008BF20EADC7070474FF0FF0C1CEAD052C0
:104AB0001EBF1CEAD15392EA0C0F93EA0C0F6FD081
:104AC0001A4480EA010C400218BF5FEA41211ED05F
:104AD0004FF0006343EA501043EA5111A0FB01314B
:104AE0000CF00040B1F5000F3EBF490041EAD37120
:104AF0005B0040EA010062F17F02FD2A1DD8B3F19C
:104B0000004F40EBC25008BF20F00100704790F00A
:104B1000000F0CF0004C08BF49024CEA502040EA5C
:104B200051207F3AC2BFD2F1FF0340EAC250704722
:104B300040F400004FF00003013A5DDC12F1190F60
:104B4000DCBF00F000407047C2F10002410021FAD2
:104B500002F1C2F1200200FA02FC5FEA310040F1EA
:104B6000000053EA4C0308BF20EADC70704792F063
:104B7000000F00F0004C02BF400010F4000F013A9B
:104B8000F9D040EA0C0093F0000F01F0004C02BF96
:104B9000490011F4000F013BF9D041EA0C018FE705
:104BA0000CEAD15392EA0C0F18BF93EA0C0F0AD00B
:104BB00030F0004C18BF31F0004CD8D180EA010031
:104BC00000F00040704790F0000F17BF90F0004FCA
:104BD000084691F0000F91F0004F14D092EA0C0FAC
:104BE00001D142020FD193EA0C0F03D14B0218BF3F
:104BF000084608D180EA010000F0004040F0FE4085
:104C000040F40000704740F0FE4040F44000704720
:104C10004FF0FF0C1CEAD0521EBF1CEAD15392EA9F
:104C20000C0F93EA0C0F69D0A2EB030280EA010C8F
:104C300049024FEA402037D04FF0805343EA111128
:104C400043EA10130CF000408B4238BF5B0042F186
:104C50007D024FF4000C8B4224BF5B1A40EA0C002B
:104C6000B3EB510F24BFA3EB510340EA5C00B3EB5D
:104C7000910F24BFA3EB910340EA9C00B3EBD10F4B
:104C800024BFA3EBD10340EADC001B0118BF5FEA9D
:104C90001C1CE0D1FD2A3FF650AF8B4240EBC250C6
:104CA00008BF20F0010070470CF0004C4CEA502087
:104CB0007F32C2BFD2F1FF0340EAC250704740F4D6
:104CC00000004FF00003013A37E792F0000F00F0C8
:104CD000004C02BF400010F4000F013AF9D040EA46
:104CE0000C0093F0000F01F0004C02BF490011F4DA
:104CF000000F013BF9D041EA0C0195E70CEAD153D2
:104D000092EA0C0F08D142027FF47DAF93EA0C0FB8
:104D10007FF470AF084676E793EA0C0F04D14B029C
:104D20003FF44CAF08466EE730F0004C18BF31F04E
:104D3000004CCAD130F000427FF45CAF31F0004348
:104D40007FF43CAF5FE700BF4FF0FF3C06E000BFE1
:104D50004FF0010C02E000BF4FF0010C4DF804CD04
:104D60004FEA40024FEA41037FEA226C18BF7FEA14
:104D7000236C11D001B052EA530C18BF90EA010F16
:104D800058BFB2EB030088BFC81738BF6FEAE170A5
:104D900018BF40F0010070477FEA226C02D15FEA41
:104DA000402C05D17FEA236CE4D15FEA412CE1D0AD
:104DB0005DF8040B704700BF844608466146FFE774
:104DC0000FB5FFF7C9FF002848BF10F1000F0FBD56
:104DD0004DF808EDFFF7F4FF0CBF012000205DF84F
:104DE00008FB00BF4DF808EDFFF7EAFF34BF0120D4
:104DF00000205DF808FB00BF4DF808EDFFF7E0FF6D
:104E000094BF012000205DF808FB00BF4DF808EDBD
:104E1000FFF7D2FF94BF012000205DF808FB00BF20
:104E20004DF808EDFFF7C8FF34BF012000205DF802
:104E300008FB00BF42000ED2B2F1FE4F0BD34FF081
:104E40009E03B3EB126209D44FEA002343F0004300
:104E500023FA02F070474FF00000704712F1610F23
:104E600001D1420202D14FF0FF3070474FF00000F5
:104E7000704700BF53B94AB9002908BF00281CBFBA
:104E80004FF0FF314FF0FF3000F0A4B9ADF1080C46
:104E90006DE904CE00F03AF8DDF804E0DDE9022324
:104EA00004B0704710B500210446FFF79BFF20B9FE
:104EB0002046BDE8104000F009B804F1004000F0C1
:104EC00005F8404261EB410110BD00BFD0B5FFF7CE
:104ED000C7FB0C4B002206460F4601F097FBFFF77D
:104EE000B5FC0446FFF79AFB074B002201F08EFB4E
:104EF00002460B4630463946FFF752FAFFF7A6FC4A
:104F00002146D0BD0000F03D0000F0412DE9F04702
:104F1000089E0D4604460F46002B4AD18A4294460D
:104F200065D9B2FA82F343B102FA03FCC3F120025D
:104F30009F4020FA02F217439C404FEA1C4E1FFA92
:104F40008CF5B7FBFEF1220C0EFB117742EA07420B
:104F500001FB05F090420AD91CEB020201F1FF3778
:104F600080F01B81904240F2188102396244121A8B
:104F7000A4B2B2FBFEF00EFB102244EA024400FB96
:104F800005F5A5420AD91CEB040400F1FF3280F0BC
:104F90000681A54240F203816444023840EA0140A0
:104FA000641B00211EB1DC400023C6E90043BDE8BC
:104FB000F0878B4208D9002E00F0EC800021C6E972
:104FC00000050846BDE8F087B3FA83F1002949D10E
:104FD000AB4202D3824200F2F780841A65EB0302EF
:104FE00001201746002EE2D0C6E90047DFE702B9EC
:104FF000FFDEB2FA82F3002B40F08F808A1A4FEA6C
:105000001C471FFA8CFE0121B2FBF7F507FB1520A8
:10501000220C42EA00420EFB05F0904208D91CEB3C
:10502000020205F1FF3802D2904200F2CA804546E2
:10503000121AA4B2B2FBF7F007FB102244EA0244B2
:105040000EFB00FEA64508D91CEB040400F1FF325C
:1050500002D2A64500F2BA801046A4EB0E0440EA44
:1050600005409FE7C1F120078B4022FA07FC4CEA7C
:10507000030C05FA01F420FA07F3FD40234300FA7C
:1050800001F94FEA1C401FFA8CFEB5FBF0F81C0C2E
:1050900000FB185544EA054408FB0EF5A54202FA48
:1050A00001F20BD91CEB040408F1FF3A80F0878071
:1050B000A54240F28480A8F102086444641B9DB2BA
:1050C000B4FBF0F300FB134445EA044403FB0EFE7B
:1050D000A64508D91CEB040403F1FF306BD2A645AA
:1050E00069D9023B644443EA0840A0FB0283A4EB75
:1050F0000E049C42C6461D4655D352D056B1B9EB5C
:105100000E0364EB050404FA07F7CB40CC401F43C1
:10511000C6E900740021BDE8F087C3F1200102FA5E
:1051200003FC20FA01F225FA01F19D402A434FEADF
:105130001C471FFA8CFEB1FBF7F007FB1015110C92
:1051400041EA054100FB0EF58D4204FA03F408D94B
:105150001CEB010100F1FF382FD28D422DD902380E
:105160006144491B92B2B1FBF7F507FB151142EA06
:10517000014205FB0EF1914208D91CEB020205F138
:10518000FF3816D2914214D9023D6244521A45EAC0
:10519000004139E73146304609E73946E7E610462F
:1051A000FCE6C145AAD2B8EB020E63EB0C05013850
:1051B000A4E74546EAE7034695E74046D1E7D046EF
:1051C0007CE7023D624433E708460BE7644402385B
:1051D00043E700BF704700BF40EA01039B0730B5BB
:1051E00001D1032A0FD8844601F1FF3E07E01EF8E3
:1051F000011F03F8011B541EC1B19C4622466346A1
:10520000002AF4D130BD0B468446194653F8045B9E
:10521000A5F1013424EA050414F0803FE4D1043AF6
:10522000032A4CF8045B1946EFD8DDE79444002CC0
:10523000E8D003F8011B6345FBD130BD014B186872
:10524000704700BF288FFF1F024B0146186800F00F
:105250000BB800BF288FFF1F024B0146186801F0F2
:1052600079B800BF288FFF1F2DE9F04F01F10B0621
:10527000162E83B0044624D8102900F2BA8000F01C
:105280008BFD102618220220B54F3A44A2F10801E6
:1052900053688B4200F0BA805A68D96822F0030242
:1052A0001A449D68E9608D60516841F00101204613
:1052B000516003F1080500F075FD284603B0BDE814
:1052C000F08F36F0070600F19480B14200F2918031
:1052D00000F062FDB6F5FC7FC0F09A81730A00F021
:1052E0008F80042B00F26F81B30903F1390003F1C1
:1052F000380CC3009A4F3B44A3F108055B689D42FC
:1053000006D10CE0002980F22781DB689D4206D09F
:105310005A6822F00302911B0F29F3DD60463D69B4
:10532000DFF840C265457CD06A6822F00302931B17
:105330000F2B00F37B81002BC7E904CC80F26C813A
:10534000B2F5007F80F01A81D308796801334FEA03
:10535000521E012202FA0EF20A4357F833E0C5F852
:1053600008E007EBC3010839E9607A6047F8335079
:10537000CEF80C50831001219940914257D8114228
:1053800006D120F003004900114200F10400FAD0D8
:1053900007EBC0094D468646D5F80C80454508D137
:1053A0001DE1002B80F22481D8F80C80454500F0E7
:1053B0001681D8F8042022F00302931B0F2BF0DD96
:1053C0002046D8E9025408EB060146F00106C8F869
:1053D0000460EC60A56043F00104C7E90411C1E971
:1053E00002CC4C6048F8023000F0DCFC08F1080503
:1053F00002E00C2323600025284603B0BDE8F08FAF
:105400004FF4007340204FF03F0C73E7D3689A428B
:1054100008BF02307FF440AF3D69DFF848C1654501
:1054200082D17A688310012199409142A7D9BD6841
:105430006B6823F003094E4503D8A9EB06030F2B35
:105440007ADCDFF824B1494BDBF800201B6801321D
:10545000334405EB090A00F0338103F580530F3321
:1054600023F47F6828F00F084146204601F078F8C1
:10547000411C024600F0F380824500F2EE803C4B76
:10548000196841441960084600F04E81DBF80010AD
:10549000019301311BBFA2EB0A010918CBF80020D0
:1054A000196012F0070B00F01781CBF108010A44D4
:1054B000CBF5805190440831A1EB0801C1F30B0AF0
:1054C00051462046009201F04BF8421CDDE90023D2
:1054D00000F04F81801A00EB0A081968BA6048F0A2
:1054E00001005144BD425060196000F02981B9F1BA
:1054F0000F0F40F227816868A9F10C0C2CF0070C03
:1055000000F0010040EA0C0068604FF0050E05EB6A
:105510000C00BCF10F0FC0E901EE00F232815068BF
:105520001546144B1A688A4238BF1960124B1A6824
:105530008A4238BF196094E0AA1943F0010346F08B
:1055400001066E602046BA60536000F02BFC0835FF
:10555000284603B0BDE8F08FD9681A44A1E600BF21
:10556000F089FF1FF889FF1FF88DFF1F6C92FF1F46
:105570003C92FF1F6492FF1F6892FF1FB2F5206FDD
:105580004FEA522363D3142B00F2B78003F15C017E
:10559000C9005B3307EB010E7958AEF1080E8E455A
:1055A00000F091804B6823F00303934202D989688D
:1055B0008E45F7D1D1F80CE07A68C5E9021ECEF825
:1055C0000850CD60D6E6142B59D9542B00F29D809B
:1055D000330B03F16F0003F16E0CC3008AE60EF18A
:1055E000010E1EF0030F05F108057FF4D5AE51E062
:1055F000424445465368D8F80C1043F00103536009
:1056000055F8083F2046D9608B6000F0CBFBF3E6ED
:10561000F00806F1080237E62A442046536843F0B2
:1056200001035360083500F0BDFBE5E6A9192046EB
:1056300046F0010643F001046E60C7E90411C1E9B8
:1056400002CC4C60AB5000F0ADFB0835D4E69309BA
:1056500003F13901C90038339CE7BD425FD0BD6812
:10566000686820F003084645A8EB060302D80F2B14
:105670003FF762AF204600F095FB0025BCE603F142
:105680005C0003F15B0CC30034E659F808394B4564
:1056900040F0968010F0030F00F1FF30F5D17B68E9
:1056A00023EA01037B60490099423FF6C0AE19B975
:1056B000BDE649000EF1040E1942FAD0704667E6C5
:1056C00003F11008D0E69A104FF001087B6808FA41
:1056D00002F21A437A6070E702EB08014942C1F313
:1056E0000B0A51462046009200F03AFF431CDDE9C8
:1056F00000237FF4EFAEDA46EFE6542B25D8130BE8
:1057000003F16F01C9006E3344E7B3F5AA7F25D8D2
:10571000F30B03F1780003F1770CC300EAE5294BA2
:10572000186840441860B1E6CAF30B0CBCF1000FD6
:105730007FF4ACAEBD68C84448F001006860F0E694
:105740001546EEE60123536094E7B3F5AA7F23D80C
:10575000D30B03F17801C90077331BE740F25452B1
:10576000934223D8B30C03F17D0003F17C0CC300FA
:10577000C0E5ABF1080BD844A8EB02084FF0000AD3
:10578000ABE605F108012046009300F0E3FDBD689B
:10579000009B68681968C4E640F254518B420BD8EC
:1057A000930C03F17D01C9007C33F3E64FF47E7363
:1057B0007F204FF07E0C9DE54FF47E717E23E9E65D
:1057C0007B6870E73C92FF1F024B13B1024800F068
:1057D000EFBA704700000000CD59000088420DD993
:1057E0008B1883420AD900EB020CBAB1624613F857
:1057F00001CD02F801CD9942F9D170470F2A0ED898
:10580000034602F1FF3C4AB10CF1010C013B8C4410
:1058100011F8012B03F8012F6145F9D1704740EAD7
:1058200001039B0750D1A2F1100370B501F1200CC8
:1058300023F00F0501F1100E00F11004AC441B0918
:105840005EF8105C44F8105C5EF80C5C44F80C5C8C
:105850005EF8085C44F8085C5EF8045C44F8045C9C
:105860000EF1100EE64504F11004E9D1013312F0F7
:105870000C0F01EB031102F00F0400EB031327D010
:10588000043C24F003064FEA940C1E441C1F8E4671
:105890005EF8045B44F8045FB442F9D10CF10104F2
:1058A00002F0030203EB840301EB840102F1FF3CED
:1058B0004AB10CF1010C013B8C4411F8012B03F8A7
:1058C000012F6145F9D170BD02F1FF3C03469BE712
:1058D0002246EBE7830730B548D0541E002A3FD05C
:1058E000CAB2034601E0013C3AD303F8012B9D07FD
:1058F000F9D1032C2DD9CDB245EA05250F2C45EA67
:10590000054536D9A4F1100222F00F0C03F1200E48
:10591000E6444FEA121C03F1100242E9045542E941
:10592000025510327245F8D10CF1010214F00C0F3F
:1059300003EB021204F00F0C13D0ACF1040323F0BC
:1059400003030433134442F8045B9342FBD10CF08D
:1059500003042CB1C9B21C4403F8011B9C42FBD1C7
:1059600030BD64461346002CF4D1F9E703461446D3
:10597000BFE71A46A446E0E713460A46014602205E
:1059800000F000BE70B50D4E0D4D761BB61006D062
:10599000002455F8043B01349847A642F9D1094E3A
:1059A000094D761B01F06CFAB61006D0002455F8AC
:1059B000043B01349847A642F9D170BD8C6E0000BB
:1059C0008C6E0000986E00008C6E000038B5074D9C
:1059D000074C2C1BA41005D0013C55F8043D9847FA
:1059E000002CF9D1BDE8384001F056BA00000000A3
:1059F00000000000704700BF704700BFFFFFFFFFBF
:105A0000A2EB0300704700BF02780B78012A28BF81
:105A10009A42F5D16DE9044540EA0104CDE90267F7
:105A20006FF0000C4FEA447212B380EA010414F0E4
:105A3000070F6AD100F0070420F0070004F0030507
:105A400021F007014FEAC505F0E8042314F0040F24
:105A5000F1E804670CFA05F462EA040266EA040657
:105A60000AD063EA0403624667EA0407664603E075
:105A7000F0E80423F1E8046782FA4CF582EA0604B0
:105A8000A4FA8CF46CBB83FA4CF583EA0705A5FAFB
:105A90008CF595B950E9022351E9026782FA4CF579
:105AA00082EA0604A4FA8CF483FA4CF583EA07052B
:105AB000A5FA8CF52543DBD09CB92DBAB5FA85F44F
:105AC00024F0070427FA04F1DDE9026723FA04F35E
:105AD00003F0FF0001F0FF01FDE80445A0EB010029
